:020000040800F2
:10000000E826002001010008332C000859250008CB
:10001000312C0008C3010008C9430008000000009B
:100020000000000000000000000000003530000863
:100030009502000800000000572F00083730000824
:100040001B0100081B0100081B0100081B01000820
:100050001B0100081B010008D10200081B01000859
:100060001B01000839030008590300081B010008A0
:100070001B0100081B0100081B0100081B010008F0
:100080001B0100081B0100081B0100081B010008E0
:10009000714300081B0100081B01000891030008C0
:1000A0001B010008553100081B0100081B01000856
:1000B000C9310008CD3200081B0100081B010008EF
:1000C0001B0100081B0100081B0100081B010008A0
:1000D0001B0100081B0100081B0100081B01000890
:1000E000E90200081B0100081B010008DFF80CD022
:1000F00000F02AF800480047A1440008E826002044
:100100000648804706480047FEE7FEE7FEE7FEE7B1
:10011000FEE7FEE7FEE7FEE7FEE7FEE7C130000888
:10012000ED00000840EA01039B0703D009E008C97D
:10013000121F08C0042AFAD203E011F8013B00F8AC
:10014000013B521EF9D27047064C074D06E0E068AD
:1001500040F0010394E8070098471034AC42F6D30E
:10016000FFF7C8FF347200085472000870B58C188D
:1001700010F8015B15F0070301D110F8013B2A11BB
:1001800006D110F8012B03E010F8016B01F8016BA8
:100190005B1EF9D12B0705D40023521E0DD401F8A4
:1001A000013BFAE710F8013BCB1A921C03E013F86D
:1001B000015B01F8015B521EF9D5A142D8D30020A2
:1001C00070BDFEE70020704700207047B0B528489A
:1001D000D0F8184220780F2848D826480121264D0B
:1001E00001700020412807D02278215C02EB8212A6
:1001F0002A4411540130F5E720780A2803D16348D6
:100200000121017020780F2814D195F80F0440B90E
:1002100095F80C24194805F5747104F07DFA95F8E9
:100220000F04012806D195F80C24154805F57471C2
:1002300004F072FA20780B2807D1124801210170CE
:1002400095F8CC0204F056FA20780E2803D10E4817
:100250000121017020780C2803D10C480121017084
:1002600020780D2802D10A48012101700020B0BD7C
:10027000A01B00209E1B0020D81400203800002066
:10028000440000209B1B0020981B0020991B00208D
:100290009C1B00207047000010B5064C1720A0479B
:1002A0002820A0470920A0470A202146BDE8104089
:1002B000084700BF4914000810B5044602F01DF8B5
:1002C0002068002141622046BDE8104002F02BB8B2
:1002D00080B5044800F0D6F80120BDE8804000F069
:1002E0004DBF00BF2422002010B5FFF7D5FF02F05C
:1002F00033FE10F1810106D010F141010AD14548C9
:100300000121016102E04348012141610322C0E96A
:10031000001201E002F058FE3F4800F0B3F83F4CF5
:100320004FF48060A0474FF48050A0474FF4004046
:100330002146BDE81040084780B5FFF7ADFF02F049
:100340000BFE02F041FE344800F09CF80820BDE8A6
:10035000804000F013BF00BF80B5FFF79DFF0A4843
:10036000017881F001010170BE480121017002F0A5
:10037000F3FD02F029FE284800F084F81020BDE8C3
:10038000804000F0FBBE00BF551400209A1B0020E7
:1003900010B5FFF781FF02F0DFFD00F181014FEAA8
:1003A000311107290CD8DFE801F0040B0B0B0E0B01
:1003B000151D184801220321C0E90021426118E0FF
:1003C00002F002FE15E0134801220321C0E90021DA
:1003D00002610EE00F4804218160002101600121CB
:1003E000C16106E00B480421C160002101600121C8
:1003F0008161094800F046F8084C2020A0474020C1
:10040000A0474FF48070A0474FF400702146BDE82C
:1004100010400847AC140020A42200207D110008E1
:1004200010B515484FF400714FF4806240234FF42B
:100430008054016002600360202303604FF48073E6
:100440000360046010240460082404604FF4004436
:1004500004600A484FF400040460094C43600160E2
:1004600002601720A0472820A0470920A0470A20A3
:100470002146BDE8104008471404014080E200E036
:100480005D14000810B5044601F022FF2046BDE8C7
:10049000104001F027BF00002DE9FC4100EB4000B7
:1004A000A64F4FF0000802F0D3FB601C4FF4EC7233
:1004B000CDF80080C4B2022021462346B84705F19A
:1004C000160601204FF4EC72CDF800803146334619
:1004D000B84702F00DFD02F02FFD15350120214631
:1004E0000122CDF800802B46B84702F040FCCDF841
:1004F0000080B84702F0E5FCBDE8FC81BCB58F4D3B
:10050000002402F00CFD02F039FC0094A8474FF4DF
:10051000897040F20B1140F26F1202F0E9FB02F019
:10052000AEFC40F21110F62140F2111202F0E0FB95
:1005300002F010FC0094A84702F005FD0094A847C3
:100540004FF4B870F6214FF4B87202F0D1FBBCBD85
:10055000E0B500EB4000002140F2D912C00000914C
:10056000C1B2002001F1170300F0E8FB8CBD0000D0
:10057000BCB5074800F10C0500203CCD009099B2B5
:100580002B4490B222449BB292B200F0D7FBBCBD88
:10059000000000202D20704705484FF4FC61C18009
:1005A0000449C0F802106FF01F011F31018070472D
:1005B000901B0020E0FF07FC2DE9FC4100200024F7
:1005C00000F0B0FB4FF6FF70D22198220B23CDE94B
:1005D000000421A000F05EFDDFF88880224C234E4D
:1005E000234D882798F8000080BB02F0E5FB00F05F
:1005F000EDFB6E20B04702F01AFC00F0E7FB6E2026
:10060000B04702F0D9FB00F0F9FC6E20B04702F0D1
:100610000EFC00F0F3FC6E20B04702F0CDFB00F0C2
:100620001BFC6E20B04702F002FC00F015FC6E20AF
:10063000B04702F0C1FB00F075FC6E20B04702F03D
:10064000F6FB00F06FFC6E20B047CBE70020BDE862
:10065000FC4100F067BB00BFC7C0C3D0D3C7CAC04E
:100660002E2E2E009A1B00203A020020591100085D
:100670003A0B00202DE9F84300EB40002F4F48F2E1
:10068000304802F0E5FA601C4FF6FF794FF4EC7247
:10069000C4B20220CDF8009021462346B84705F1A8
:1006A000160601204FF4EC72CDF800903146334627
:1006B000B84702F01DFC02F03FFC15350120214631
:1006C0000122CDF800902B46B84702F050FBCDF840
:1006D0000090B84702F0F5FBBDE8F8837CB5174DF4
:1006E00048F2304402F01BFC4FF6FF7602F046FB66
:1006F0000096A8474FF4897040F20B1140F26F1238
:1007000040F20B130096A84702F0B9FB40F211101B
:10071000F62140F2111202F0EBFA02F01BFB0096F8
:10072000A84702F010FC0096A8474FF4B870F621D5
:100730004FF4B87202F0DCFA7CBD00BF3D0D00083A
:100740002DE9FE4FDFF86C92022604254FF0000BD6
:100750000FF26428002409F13F070A2C32D017F861
:10076000010CC00622D417F9020C052898BF58F8CE
:1007700020A0B0B20090504618211422032300F0AC
:1007800005FB3888AAB21D212C23CDE9000BA7F167
:100790003E0000F07FFC17F8010C000702D58C48E2
:1007A000007858B12046FFF777FE02E02046FFF7B9
:1007B000CFFE4137013418361835CEE72046FFF713
:1007C00059FFF6E799F88B0299F88C1200F05AF964
:1007D00099F88D0200F006FA7E4D00214FF49372D5
:1007E00011236888CDE9000109F28E204FF49A7137
:1007F00000F050FC784C99F89F02618881421CD02F
:1008000099F8A7122A1D884208BFAA1C118801382E
:10081000C2B289B2082A8FBF04F11C0040B26FA295
:1008200052F8200000220523CDE900123C21FA22D3
:1008300000F030FC99F89F02608099F8A002A1882E
:1008400081421ED099F8A8122A1D884208BFAA1C0E
:100850001188102806D0202806D0182814BF6BA0B5
:1008600069A002E066A000E066A0002289B202232F
:10087000CDE90012AA21FA2200F00CFC99F8A0029E
:10088000A08068880021FA220523CDE9000109F241
:10089000A1204FF48C7100F0FDFB4D48007810B1A1
:1008A000FFF71CFF01E0FFF729FE99F8A702E18896
:1008B000814216D00138C1B209298FBF04F11C0052
:1008C00040B253A151F82000698800220523CDE9E8
:1008D00000123C214FF4887200F0DCFB99F8A7026B
:1008E000E080688800214FF488720723CDE9000179
:1008F00009F2A920AA2100F0CDFB99F8A6022189CE
:10090000814217D00138C1B20C298FBF04F12300F6
:1009100040B2494951F82000698800221123CDE9ED
:1009200000124FF49B714FF4887200F0B3FB99F8FA
:10093000A602208199F8B0026189814238D0002650
:1009400069883F4FFA22032380075CBF48F2304199
:10095000CFF6FF7188B24FF4BE71CDE9000637A023
:10096000B84799F8B0126888FA22032349075CBF98
:1009700048F23040CFF6FF7080B24FF4CD71CDE930
:10098000000630A0B84799F8B0126888FA2204230C
:1009900009075CBF48F23040CFF6FF7080B24FF4D9
:1009A000DC71CDE9000628A0B84799F8B002608153
:1009B000BDE8FE8FD8140020A05B0008605F00082F
:1009C000A06A0008E066000820630008E0570008FD
:1009D00055140020901B002000000020641400200B
:1009E00079140020801400208E140020951400201B
:1009F000561400205D1400206B1400207214002097
:100A00003136000033320000323400002030000064
:100A10006414002079140020801400208E1400201B
:100A200095140020561400205D1400206B14002043
:100A300072140020871400209C470008CFD12E009C
:100A400095100008D1CF2E00DDCAC22E0000000094
:100A50001CB50020002400F065F94FF6FF709621C8
:100A600098221223CDE9000401A000F013FB1CBD65
:100A7000C7C0C2C5D0D8C5CDC8C520D0C0C1CED290
:100A8000DB2E0000BCB5ED2201FB02F36422B3FBB8
:100A9000F2F4042C98BF0424642908D10020022118
:100AA0004FF4EF72EF23009002F04BF9BCBDC4F19C
:100AB000ED01EF2348430221B0FBF2F545F6EB20B0
:100AC0004FF4EF72009002F03CF95A484FF4EF7285
:100AD000C0880090281983B2A81C81B202F031F9B5
:100AE000BCBD00BFFEB52F484FF0FF314FF4EB7295
:100AF000F2234181C0F80610C0F8021048F23040DD
:100B0000F2210090052000F019F9F8201821142294
:100B1000FA230090244800F039F9244F0025264E8E
:100B20000421FA2204233888CDE9000520A0B0472B
:100B3000388804214FF488720523CDE900051FA0F1
:100B4000B047388804214FF493720623CDE900059D
:100B50001CA0B04778881D4C7821FA2202F002F9D7
:100B6000788878214FF4887202F0FCF878884FF486
:100B7000AA71FA220323CDE9000515A0B0477888B1
:100B8000C821FA220423CDE9000512A0B0477888D5
:100B9000FA214FF488720523CDE900050FA0B04774
:100BA000FEBD00BF00000020606E0008901B00200A
:100BB000D6C0CF3A0000000095100008D4E0E9EB61
:100BC0003A000000C2F0E5ECFF3A00002072000895
:100BD000C4E12E00C1E8F22E00000000EAE12FF18E
:100BE0002E000000BCB5124D04462868A0420BD967
:100BF00045F6EB2040F23B114FF4EE7240F23D130C
:100C00000090042000F09AF80A48642140F23D1355
:100C1000C08800904FF4EC706043B0FBF1F040F2FC
:100C20003B11043082B2042000F088F82C60BCBD77
:100C3000A0000020901B00202DE9FE4F364F81467A
:100C40003648924640F2B716DFF8D4804FF0000BDA
:100C50003C788C4228BF0C46047040F23F11CDF81E
:100C600000B0B86902252822091A91FBF5F304EBBC
:100C7000840102EB4102A6EB410191FBF5F6184419
:100C80007A6131B2C7E90313B1188AB299B283B25B
:100C9000B0B2C047BA69B88939692346CDE900AB1B
:100CA000103A143092FBF5F211448AB281B24846F0
:100CB00000F0F0F9FA68398A7B694FF6FF74009406
:100CC00090B21A444B1C92B29BB2C047D7E90313AF
:100CD000D7E90525009488B211448AB2E9188BB28D
:100CE000013989B2C047B8893B69BD690094421C8B
:100CF00099B22B4492B29BB2C047D7E90303D7E91C
:100D000005250094104499B22B4482B201389BB25D
:100D100080B2C047BDE8FE8F0000002054140020C0
:100D20003D0D0008E0B500900020002140F2DF12E8
:100D300040F23F1300F002F88CBD0000F8B51C46ED
:100D400015460E46074601F0C1FDA01B069AD04E7F
:100D5000002401301FFA80FCE81BCC4D130A4FF031
:100D6000005701301FFA80FE4FF40050744508BF51
:100D7000F8BD614639B12B60376030602A6037605A
:100D800030600139F6E70134F0E700BFF8B50446FA
:100D9000C8180E46069915461F46013882B26818D3
:100DA00001F051FF06FB05F0EA49E94A4FF0005314
:100DB0004FF4005504EB4000844228BFF8BD14F8FE
:100DC000016B16600B600D60F6E700BFFEB50546CF
:100DD000C8180C46089916461F46013882B270188A
:100DE00001F031FFDA49DB4A06FB04F04FF0000C5A
:100DF0004FF000534FF40056ADF80600ADF80AC0AE
:100E0000BDF80A70BDF80600874228BFFEBDADF8E8
:100E100008C0BDF80800BDF80A70A04218D2E81951
:100E2000BDF80870C05D00F0F80747EA50170F6082
:100E300000F01C0713601660FF0047EAD00008604E
:100E400013601660BDF808000130ADF80800E0E757
:100E50003819ADF80A00D3E72DE9FC478A46A1F11D
:100E600001090A99044690461F4609EB030082B225
:100E700008EB010001F0E7FE08FB0AF0B54901F0BC
:100E800032FFA0EB0A00ADF80600B148BDF80670CD
:100E9000ADF8049027B3BDF80470BDF80660BDF846
:100EA00004502644755D05F0F80646EA55160660BE
:100EB00005F01C060A600B60F60046EAD5050560E1
:100EC0000A600B602FB1BDF80450013DADF804502D
:100ED000E1E7BDF80650A5EB0A05ADF80650D5E7E9
:100EE00001F001FFBDF80450BDF80660BDF80470C4
:100EF0002644F65D06F0F80747EA5617076006F045
:100F00001C070A600B60FF0047EAD60606600A600D
:100F10000B602DB1BDF80450013DADF80450E1E780
:100F2000BDE8FC872DE9FE4389464E1E0A99054619
:100F300090461F46F01882B208EB010001F083FED4
:100F400008FB09F083494FF0000C4FF00053ADF857
:100F500006007F48ADF80A604FF40056BDF80A70ED
:100F6000ADF808C027B3BDF80820BDF80640BDF8AD
:100F70000A70A24218D2BDF80840EA19125D02F0C8
:100F8000F80444EA5214046002F01C040B600E6082
:100F9000E40044EAD20202600B600E60BDF8082053
:100FA0004A44ADF80820DEE77A1EADF80A20D5E7FE
:100FB00001F099FEBDF80840BDF80660B44228BFB4
:100FC000BDE8FE83BDF80A40BDF808602C44A45D6E
:100FD00004F0F80646EA5416066004F01C060A609F
:100FE0000B60F60046EAD40404600A600B60BDF8AA
:100FF00008404C44ADF80840DCE700BF2DE9FC4157
:101000000546C8188846089916461F46013882B218
:10101000701801F018FE00204D494E4A4FF0005361
:10102000ADF8060006FB08F04FF40056A0EB080CE4
:10103000BDF80670474528BFBDE8FC81ADF804C087
:10104000BDF80470BDF80600BDF804402844005DFA
:1010500000F0F80444EA50140C6000F01C04136023
:101060001660E40044EAD00008601360166037B1EF
:10107000BDF80400A0EB0800ADF80400E0E7BDF8FF
:1010800006000130ADF80600D2E700BF0C080140B1
:10109000101001402DE9FC47064603EB8300DDE913
:1010A0000A8A91460D4600244700BC4228BFBDE88D
:1010B000FC87611916F8010B4A464346CDF800A09B
:1010C00089B200F003F80A34EFE700002DE9F84F89
:1010D00005461646C81D9A4682B206F10F0083B235
:1010E0000846314601F0F2FB1848DDF828804FF041
:1010F000000E4FF000564FF400574FF4FF7900EB0D
:1011000005111348134D8446BEF10F0F88BFBDE88B
:10111000F88F0091097801220020072811D80A428F
:101120005446E34609EA420208BF4446230A013016
:10113000CCF800302E602F60CCF800402E602F607D
:10114000EBE700990EF1010E0131DDE7E047000801
:101150000C08014010100140B0B5044600F0F2F850
:1011600005469648611C007818BF044400F0EAF870
:10117000401BA042FAD3B0BD7047000003490A6883
:10118000024208BF70470860FFF7F6BF1404014031
:101190002DE9FC4F5C4A04234FF0000B4FF001088F
:1011A0004FF00F0C4FF00009904208BF032300934B
:1011B0000025102D08BFBDE8FC8F0C6808FA05F269
:1011C000144200F09D804F68032F16D9112F24D0B0
:1011D000122F26D04F4B9F4213D04F4B9F4210D01F
:1011E0004E4B9F420DD04E4B9F420AD04D4B9F42DB
:1011F00007D04D4B9F4204D020E0DFE807F00216F5
:10120000191D8C6834B1012C14BF426102614FF08A
:10121000080913E04FF0040910E0CC6804F1040958
:101220000CE0CC6804F10C0908E0D1F80C9005E062
:10123000CC6804F1080901E04FF000095C4607465C
:10124000082D28BF203C28BF04373B680CFA04F661
:1012500009FA04F4B34323433B60CB79DB064FD553
:10126000764C4FEA950E236843F001032360236810
:1012700003F001030193019B244BA3F57E742B4BD8
:1012800054F82EA0984208D0294B984207D0294BF9
:10129000009E984208BF022602E0002600E00126D8
:1012A0000BF00C030F2707FA03FC06FA03F3174EA3
:1012B0002AEA0C074FF00F0C3B4344F82E304F68DE
:1012C000FB03336854BF23EA020443EA0204346098
:1012D000BB03736854BF23EA020443EA0204746048
:1012E000FB02B36854BF23EA020443EA0204B46079
:1012F000074CBB02236854BF23EA02021A43226050
:101300000BF1040B013554E70014014000040140C7
:101310000C04014000001110000012100000211008
:1013200000002210000031100000321000080140BF
:10133000000C014000100140002A08BF09040161AF
:101340007047000005480068704700BF1B4803490C
:1013500000780A6810440860704700BFE42200204B
:1013600080B50748016841F010010160032000F0DA
:10137000A5F8002000F006F800F024F8002080BD59
:101380000020024070B50D4E04464FF47A7130785B
:10139000B1FBF0F00A490968B1FBF0F000F00EFF74
:1013A00001250F2C08D838B94FF0FF302146002214
:1013B000002500F05DF87460284670BD60000020D4
:1013C000A40000201CB51D48016841F00101016026
:1013D000016801F0010101910199416841F08051DA
:1013E0004160406800F0805000900098032000F0B9
:1013F00065F8134C6FF00B0001F03FFC6FF00A0032
:1014000001F03BFC6FF0090001F037FC6FF00400C5
:1014100001F033FC6FF0030001F02FFC6FF00100CE
:1014200001F02BFC4FF0FF3001F027FC05480222B1
:10143000016862F31A6101601CBD00BF1810024010
:101440007114000804000140734601F06FFC9E46D1
:10145000014A01F0C8BC00BF80E100E0734601F022
:1014600065FC9E46014A01F0BEBC00BF00E100E001
:10147000F0B5184B4FF0FF361C68C4F30224E51E8C
:1014800084F0070438BF002506FA05F7BA43042C98
:1014900028BF042406FA04F4A14300F00F04A94075
:1014A000043C1143044A234409010244002848BF74
:1014B00003F10C021170F0BD00E400E005494FF6A5
:1014C000FF030A681A4060F30A22034810430860C9
:1014D000704700BF0CED00E00000FA05B0B501F068
:1014E0007F0500EB411400EB45102830090658BF7A
:1014F00004F50A701AB10121C0F8063001E08380BA
:10150000002181720020B0BD704700EB4112D0F87D
:101510005C04D26B02F0A4B900EB4112D0F85C0479
:10152000D2F83C2202F0EDB9B0B5044601F07F00DC
:101530000A4604EB4013150603F1280158BF03F5D2
:101540000A71087094F82804D2094A70012804BF6F
:101550000220B0BD01F094FB02F090FD002084F861
:101560002804B0BDB0B5044601F07F030A4600EB85
:10157000411004EB43112831150658BF00F50A71DC
:101580000B70D0090025487094F828048D7001284C
:1015900001D1022505E001F073FB02F0E7FD84F8BC
:1015A00028542846B0BDF8B5044601F07F000D462A
:1015B00004EB40162F0606F1280158BF06F50A7104
:1015C000087094F828040A61EA09CB704A7001286F
:1015D00004BF0220F8BD01F053FB02F077FC0020AD
:1015E00084F82804F8BDB0B501F07F01002500EBB8
:1015F0004114006804F50F7784F8281204F50A7185
:1016000084F829522CC702F001FE0020B0BDB0B50D
:10161000044601F07F050A4600EB411004EB45113A
:101620002831130658BF00F50A710D70D00994F8DF
:10163000282448700120012A887004BF0220B0BD10
:1016400084F82804206802F0BDFD25B9206804F262
:101650002C4102F089FD002084F82804B0BD10B5AB
:1016600001F07F0400EB4411006801F8284F0024CA
:1016700001F1140CACE81C0001224A7002F0C6FD16
:10168000002010BD2DE9FE4F0446006802F076FEF2
:10169000000400F18380206802F070FE40050DD543
:1016A0002068B0F8441021F48061A0F8441020466E
:1016B00000F07EFA2046002100F08FFA206802F048
:1016C0005DFE01462068490405D5B0F8441021F4B8
:1016D0008041A0F8441002F051FE014620688904C0
:1016E00005D5B0F8441021F40051A0F8441002F0E0
:1016F00045FE01462068C90415D5B0F8401021F018
:101700000401A0F84010B0F8401021F00801A0F842
:101710004010204600F059FA2068B0F8441021F437
:101720008051A0F8441002F029FE000519D5206868
:10173000B0F8401041F00801A0F84010B0F8441093
:1017400021F40061A0F84410B0F8401041F0040109
:10175000A0F8401002F012FEC00402D4204600F0AF
:1017600061FA206802F00AFE800509D52068B0F809
:10177000441021F40071A0F84410204600F029FA2A
:10178000206802F0FBFDC00506D52068B0F84410C3
:1017900021F48071A0F84410BDE8FE8F002048F6C7
:1017A0000F75ADF80A00ADF8080004F22C40019066
:1017B0002068B0F94410B1F1FF3FADF80A103FF7CF
:1017C0006BAFBDF80A1011F00F082ED030F82810BA
:1017D0004FEA4809ADF80810BDF90810B1F1FF3F14
:1017E00000F3F38030F8191040F68F7204EB481ABA
:1017F0000AF50A7B114020F819109AF832120029D4
:1018000000F0A1809BF8001001F064FB520400EB93
:10181000410100F1A880D1F80C646FF39F26002EDF
:1018200000F0AB80BAF83022A4E0BDF80A200188AD
:10183000D20628D42940018094F82810B0F850200E
:1018400002EBC10100EB4100E16BD0F804046FF33F
:101850009F20606408440021E0632046FFF755FEA6
:1018600094F824000028A3D0206C0028A0D1206880
:1018700094F8241041F08001C9B2A0F84C10002067
:1018800084F8240094E7ADF80810BDF808100905A5
:101890003CD4BDF90810B1F1FF3F89DC018840F666
:1018A0008F721140018094F8281201F02AFBD1F8C0
:1018B0000C346FF39F23C4F8443263B1B4F82C2284
:1018C000D4F83C1202F05DFDD4F83C02D4F8441286
:1018D0000844C4F83C0220460021FFF71DFE2068A2
:1018E000D4F83822B0F850103F2AC0F0D1804FF41D
:1018F000F843D60603EA42134FEA421208BF03F543
:10190000F84202F4F84202F50042C7E094F82812C7
:10191000B0F8502002EBC101B4F82C2200EB4101D9
:10192000D1F80C3401996FF39F23C4F8443202F0CC
:1019300028FD206840F68F72018811400180204602
:1019400000F059F934E79BF8001001F0DAFAD1F809
:101950000C646FF39F26002E00F09880BAF82C22BA
:1019600001F097FA17E0D1F804646FF39F2626B1CF
:10197000BAF82E2201F08DFA00E000269BF8000054
:10198000216840F60F7331F820201A4048F2C00356
:101990001A4321F82020DAE98F03DAF84412821979
:1019A0003144CAF84412CAF83C221BB1DAF83802B2
:1019B000B04205D99BF800102046FFF7ADFD04E0CA
:1019C0009BF800102046FFF70EFEBDF80800000649
:1019D0007FF5EEAE206804EB481606F1280730F8D4
:1019E0001910294020F8191096F8321069B1397889
:1019F00001F070FA520600EB410119D4D1F80C3411
:101A000001F095FA1DD0328E18E03978B0F85020E8
:101A100002EBC10200EB4202D2F8043401F087FA73
:101A20001DD0B28DF16B02F0C1FC3978206816E050
:101A3000D1F8043401F07BFA03D0F28DF16B02F09F
:101A4000B5FC3978206840F60F7330F821201A4031
:101A500048F2C00303F57F531A4320F82120B0F861
:101A6000502002EBC10200EB4200D6E90F23D0F870
:101A700004046FF39F20024470642046F26313B1A4
:101A8000FFF7EDFD94E6FFF740FD91E6002682E7C3
:101A900002F0010303EB5202920292B200F20C43F5
:101AA00043F8112043F60F720188114048F2C0023A
:101AB00002F53F52514001807AE6F0B585B000282A
:101AC00053D0044690F8290428B9002084F828044B
:101AD000204600F04FF8032084F82904206802F023
:101AE0003CFB94E8EF508DE8E05002F0C5FA206826
:101AF0000021002502F052FC012000210022B1F556
:101B0000F07F0DD0631820319A8683F8282083F85F
:101B10002900C3E90E551D6483F82B500132EEE70E
:101B2000002000210022B1F5F07F0ED06318203193
:101B300083F828229A8683F82902C3E98E00C3F825
:101B4000400283F82B020132EDE794E8EF508DE874
:101B5000E05002F0F2FA0025012084F8245084F8C5
:101B60002904206802F0E7FA00E00125284605B0C4
:101B7000F0BD0000E0B500680B49884218BF8CBD7D
:101B80000A480022016841F4000101600021006858
:101B900000F40000019001981420FFF769FC142064
:101BA000BDE88C40FFF75ABC005C00401C100240AE
:101BB00010B50446D0F85C04012101F076FFD4F89A
:101BC0005C04BDE8104001F043BFD0F85C0401F0B4
:101BD0005ABFD0F85C0401F05CBF10B501F0F2F818
:101BE00004BF022010BD84F8241001F049F802F06F
:101BF000D7FB01F081B8D0F85C2400F22C411046EC
:101C000001F064BF10B501F0DDF804BF022010BD83
:101C100001F013F9206802F08CFA206802F0A2FBB0
:101C200001F06AB810B50446D0F85C0401F096FFE4
:101C3000A06920B10248016841F00601016010BDB1
:101C400010ED00E02DE9FC4104460078954EC007F8
:101C500043D0B06910F0805808D1B06940F080508E
:101C6000B061B06900F08050019001982C4F386845
:101C7000C00511D4386840F480703860FFF762FB0B
:101C800005463868C00507D4FFF75CFB401B642895
:101C9000F7D90320BDE8FC81F06910F440700FD043
:101CA000616801F4407188420AD01E49F06901223E
:101CB0000A6000220A6020F44071C007F16120D15F
:101CC0006068F16921F440710843B8F1000FF061D8
:101CD00003D1B06920F08050B0612068810705D53C
:101CE000A168326822F4404211433160C00605D534
:101CF000E068316821F48001084330600020BDE8CD
:101D0000FC81FFF71FFB054641F28837F069800729
:101D1000D6D4FFF717FB411B0320B942F6D9EEE7F3
:101D200000700040400442422DE9F8430D464C4902
:101D30000446086800F00700A84209D2086820F0AD
:101D4000070028430860086800F00700A84249D14E
:101D50002068544F8946810705D5A1683A6822F06A
:101D6000F00211433960C00733D1D9F8000000F008
:101D70000700A8420CD9D9F8000020F0070028433A
:101D8000C9F80000D9F8000000F00700A84229D1E6
:101D90002068410705D5E1683A6822F4E062114302
:101DA0003960000706D52069396821F4605141EA9D
:101DB000C000386000F05CF839682A4A0024C1F39A
:101DC0000311515CC840F54908600020FFF7DAFABA
:101DD00009E06068022809D001283BD157F8041CAB
:101DE000890307D401242046BDE8F88357F8041C72
:101DF0008901F7D5396821F0030108433860FFF7FE
:101E0000A1FA0646606841F2883801280CD0022801
:101E10001BD1386800F00C000828A6D0FFF792FA12
:101E2000801B4045F5D909E0386800F00C00042813
:101E30009BD0FFF787FA801B4045F5D90324D2E7F2
:101E4000FFF780FA801B4045F8D8386810F00C0F77
:101E5000F6D18AE757F8041C8907C3D5CAE700BF43
:101E600000200240D0470008CC480068704700BFFF
:101E700010B50C490C480A6802F00C03082B07D176
:101E8000C2F3834309A4D203E35C02D40C48584351
:101E900010BD096809A25843C1F34041515CB0FB31
:101EA000F1F010BD0410024000127A000203040594
:101EB000060708090A0B0C0D0E0F10100102000096
:101EC00000093D002DE9FC4104460078B14EC007F1
:101ED0001FD0706800F00C00042814D000F07EFFC2
:101EE00002D17068C0030ED46068002800F006813B
:101EF000B0F5A02F00F01381B0F5803F00F0138102
:101F000000F0D1FE12E13068800302D5606800283D
:101F100068D02078800716D5706810F00C0F05D0B7
:101F200000F05CFF24D17068C00321D430688007C2
:101F300002D52069012855D16069316821F0F80186
:101F400041EAC00030602078000741D5A06910B395
:101F500091480121C0F88014FFF7F4F90546706A32
:101F6000800728D4FFF7EEF9401B0228F7D9EAE0F2
:101F700021698948002900F0818001210160FFF773
:101F8000E1F9054630688007D6D4FFF7DBF9401B3E
:101F90000228F7D9D7E080480021C0F88014FFF765
:101FA000D1F90546706A800712D5FFF7CBF9401BBF
:101FB0000228F7D9C7E079484FF4FA510068B0FB1E
:101FC000F1F0019000BF0198411E00280191F9D164
:101FD0002078400709D4E769002F00F0D88000F08E
:101FE000FDFE2CD10120BDE8FC81F06910F0805885
:101FF00008D1F06940F08050F061F06900F0805045
:1020000000900098664F3868C0050FD4386840F4D7
:1020100080703860FFF796F905463868C00505D42A
:10202000FFF790F9401B6428F7D98CE0E068A0B373
:10203000052844D0012846D000F070FE46E05649FD
:10204000002088460866FFF77DF90546022F0AD171
:1020500047463068800179D5FFF774F9411B0320AA
:102060000229F6D991E03068800140F19080FFF7B5
:1020700069F9411B03200329F5D386E000210160A3
:10208000FFF760F90546306880077FF55CAFFFF722
:1020900059F9401B0228F6D955E000F03FFE3062A6
:1020A000FFF750F9054641F28837306A80071CD5A2
:1020B000FFF748F9411B0320B942F6D965E0306AC1
:1020C00040F004003062306A40F001003062FFF7F7
:1020D00039F9054641F28837306A800705D4FFF7A1
:1020E00031F9401BB842F7D92DE0B8F1000F7FF469
:1020F00072AFF06920F08050F0616CE700F0D3FD22
:102100003060FFF71FF90546306880037FF501AFA7
:10211000FFF718F9411B03206429F5D935E0306831
:1021200040F480203060306840F480303060FFF749
:1021300009F90546306880033FF5EBAEFFF702F979
:10214000401B6428F6D90320BDE8FC81206AB0F565
:10215000803F05D1A168726822F40032114371609A
:10216000616A0843716821F47411084370600120AA
:102170003866FFF7E7F804463068800107D4FFF7B8
:10218000E1F8011B03200229F6D9BDE8FC810020FB
:10219000BDE8FC810010024000004242A400002083
:1021A000007000400D4904280A6822F0040208BFAC
:1021B00004320A60704700BF70470000411E0020D3
:1021C000B0EB116F1CBF01207047044AF02351602F
:1021D00003490B70072190601160704710E000E028
:1021E00023ED00E0FFF7E8BF7047704710B590F8A7
:1021F0003C300222012B18D080F83D200268536841
:1022000023F070035360D1E90031546823435360D5
:10221000936823F0800393609368194391600022D0
:10222000012180F83C2080F83D10104610BD60B1BF
:1022300010B500F014FE03D100F0B4FD00F008F872
:1022400000F066FE012000F003BE01207047000090
:102250001FB50068B0F1804F12D01A4988421BD0D8
:102260001949884218BF1FBD18481924016841F454
:1022700000610160006800F400600390039816E0BC
:1022800012481C24416841F001014160406800F09F
:102290000100029002980AE00C481D24416841F0B8
:1022A00002014160406800F0020001900198204660
:1022B00000210022FFF7DCF8204604B0BDE8104002
:1022C000FFF7CCB800040040002C01401810024079
:1022D000022180F83D1001680A6842F001020A609C
:1022E00000F099BD0068C16841F00101C16001685A
:1022F00041F00101016000207047022141F21113F9
:1023000080F83D1001680A6A1A420AD14DF808EDBA
:1023100000F01BFD5DF808EB03D10A6822F0010212
:102320000A6000F078BD006841F21112C16821F026
:102330000101C160016A114208D1734600F0E9FC55
:102340009E4603D1724600F0A9FC964600207047D5
:1023500010B500F089FD66D084F83D0001204FF6ED
:10236000777384F83C00206882689A4382600A6828
:10237000BAB1102A1BD0202A1FD0302A23D0402ADD
:1023800027D0502A2ED0602A35D0702A3FD0B2F5FF
:10239000005F41D0B2F5805F43D1816821F0070131
:1023A0003EE0816841F0070121F0700138E081686A
:1023B00041F0170121F0600132E0816841F027010E
:1023C00021F050012CE0816841F0370121F04001FB
:1023D00026E000F071FD2068816841F0470121F09E
:1023E00030011DE000F068FD2068816841F0570170
:1023F00021F0200114E04B68CA68194601F031F859
:102400002068816841F0670121F0100108E000F0C8
:10241000BCFC41F0770103E000F0B7FC41F48041DF
:10242000816000F0F1FC10BD704710B504460068F3
:102430000169890712D5C16889070FD56FF00201BC
:102440000161012121778069800702D000F031FD10
:1024500001E000F0CFFC00202077206801694907E7
:1024600013D5C168490710D56FF00401016102213D
:102470002177806910F4407F02D000F01AFD01E05E
:1024800000F0B8FC0020207720680169090712D508
:10249000C16809070FD56FF0080101610421217798
:1024A000C069800702D000F004FD01E000F0A2FC4A
:1024B0000020207720680169C90613D5C168C906C4
:1024C00010D56FF01001016108212177C06910F467
:1024D000407F02D000F0EDFC01E000F08BFC00201A
:1024E000207720680169C90709D0C168C90706D0EB
:1024F0006FF001010161204600F02CF820680169AD
:10250000090609D5C168090606D56FF08001016189
:102510002046FFF769FE20680169490609D5C168B0
:10252000490606D56FF040010161204600F013F81E
:1025300020680169890602D5C168890600D410BDEA
:102540006FF0200101612046BDE81040FFF74DBE4D
:102550007047704770477047FEE700002DE9F84F5D
:10256000D84EF94C4FF0040A4FF400554FF4006078
:102570004FF40049D44F44F806A02560A0514FF411
:102580008040C4F8009020600520B8474FF48020B8
:102590004FF00F08A0510F20B8470F2044F806A0B5
:1025A000B8474FF08040EF4E4FF0004B4FF00057D0
:1025B00008214FF01A0EB6224FF0250C222320607E
:1025C000F920C4F800B03060002027602560C4F80E
:1025D00000903060276025603160C0212760256051
:1025E000C4F800B03160192127602560C4F800905C
:1025F0003160C12127602560C6F800E027602560B2
:10260000C4F800B03160452127602560C4F800900F
:102610003160C22127602560306027602560C4F8E2
:1026200000B03160332127602560C4F8009031602C
:10263000C52127602560C4F800B0316028212760DB
:102640002560C4F800903060276025603160B121BA
:1026500027602560C4F800B03160902127602560B4
:10266000C4F8009031601121276025603160B421E9
:1026700027602560C4F800B0316002212760256022
:10268000C4F80090316027602560C4F800B0326063
:10269000422227602560C4F80090306027602560E2
:1026A00032603B22276025603260B72227602560B8
:1026B000C4F800B03260072227602560C4F800909B
:1026C0003260E02227602560C4F800B032601F222B
:1026D00027602560C4F80090326027602560C6F846
:1026E00000C02760256033600B23276025603360BE
:1026F00006232760256033600A2327602560336046
:102700004E23276025603360C62327602560336031
:102710003923276025603360E1232760256030601E
:102720002760256030602760256030602760256065
:10273000306027602560306027602560306027604A
:102740002560C4F800B033603F2327602560C4F8DB
:102750000090326027602560336027602560336019
:1027600027602560C6F80080276025603260462219
:1027700027602560C6F80080276025603623326018
:10278000492227602560326031222760256032604F
:1027900005222760256032600922276025603260AB
:1027A00003222760256032601C222760256032608A
:1027B000F12227602560C6F800E0276025603060C0
:1027C00027602560C4F800B032603C2200F0EFFAC8
:1027D000336027602560C6F800A027602560306060
:1027E000276025603260A42227602560C6F800803B
:1027F00027602560C6F80080276025603260F222DD
:1028000027602560316027602560C4F800B0326021
:10281000182227602560C4F800903260A322276048
:1028200025603260122200F0FBFA32212760256019
:102830003160276025603260FF2200F0F1FAF42158
:1028400027602560306027602560C4F800B03160E3
:10285000402127602560C4F8009031602760256022
:10286000306008202760256017493060912027607C
:1028700025603060F82000F02DFA3060212000F053
:10288000D9F9A82000F026FA336000F0D3F93A20F5
:1028900027602560C4F800B03060552000F0CAF908
:1028A000112027602560C4F800B03060782000F067
:1028B0007EFA88472920C4F800B0306000F077FA2B
:1028C000BDE8F88F00FCFFFF591100082DE9F84F13
:1028D000254C0D4607464FF000402249DFF86CA01A
:1028E0004FF4005B4FF400499846164620602A20BA
:1028F00008604FF000502060380A00F0BBFA3846FC
:10290000D047300AD0473046D047164F4FF00046E8
:102910002B20266038604FF000502060280A00F01D
:10292000A9FA2846D0474FEA1820D0474046D0475A
:102930002C20266038604FF000502060C4F800B0B2
:10294000C4F80090BDE8F88F10100140512900082C
:102950000449086004484FF0005101604FF40051F1
:10296000016070470C080140101001402DE9F04F44
:1029700085B049484A4C00224FF460464FF00008A9
:10298000016841F010010160016801F0100101913E
:102990000199016841F020010160016801F0200106
:1029A00001910199016841F004010160016801F0A1
:1029B000040101910199016841F0080101604FF49F
:1029C0006041006800F0080001900198334800F56C
:1029D000006781463846A0474846FF210022A047AD
:1029E00009F580654EF6847100222846A0474FF015
:1029F000030B0124DFF8ACA03846CDE9038BCDE909
:102A0000016401AE3146D04702A8314680E8100982
:102A1000FF2001904846D047234F41F279003146CC
:102A20000394019028460297D04702203146CDE911
:102A3000028401902846D04702A8314680E8100958
:102A40004EF6847001902846D0474FF40740314637
:102A5000CDE9027401904846D047144C062000F09E
:102A600006F9134D0620A847092000F000F90920B7
:102A7000A8470A2000F0FBF80A20A847172000F01A
:102A8000F6F81720A847282000F0F1F82820A847DA
:102A900005B0BDE8F08F00BF1810024000080140EB
:102AA000391300089111000800002110711400086A
:102AB0005D14000810B586B01748184C0021C822D4
:102AC0004FF43473C0E90043C0E90212C0E90411B5
:102AD0008161FFF7ACFB18B147484C2101F076FC4F
:102AE0004FF4805002900C4802A9FFF731FC18B156
:102AF0004148522101F06AFC0020694601902020E3
:102B000000900548FFF772FB18B13B48592101F0CE
:102B10005DFC06B010BD00BF24220020002C014047
:102B200010B586B01748002142F210724FF4E153FD
:102B30004FF080448161C0E90043C0E902120161A5
:102B4000FFF775FB18B12C486B2101F03FFC4FF4E7
:102B5000805002900B4802A9FFF7FAFB18B12648F3
:102B6000712101F033FC0020694601902020009083
:102B70000448FFF73BFB18B11F48782101F026FC01
:102B800006B010BD64220020B0B586B01848194DBB
:102B900000214FF4807246F2A8134FF4347481611F
:102BA000C0E90054C0E902130261FFF740FB18B10D
:102BB00011488A2101F00AFC4FF4805002900C4821
:102BC00002A9FFF7C5FB18B10B48902101F0FEFBED
:102BD000002069460190202000900548FFF706FB81
:102BE00018B10548972101F0F1FB06B0B0BD00BF58
:102BF000A4220020000400402572000810B5FA4C01
:102C000008490022204600F0FAFD0749204600F05E
:102C1000CAFF0649204600F0A7FC2046BDE8104048
:102C200000F0D5BF84000020A8000020280100206B
:102C3000FEE7704727602560C4F800903060704759
:102C4000086000F0C1B9013883B23846FFF73EBED4
:102C50004FF4EC72C4000120CDF80080E5B22946A3
:102C60002B4638474FF400510122FEF765BB002187
:102C700000222047072001F0C5BB00210022204789
:102C8000012084F8280420687047108840F60F71EE
:102C9000084003F58041084310807047016821F027
:102CA000010101607047306820F480303060306886
:102CB00020F480207047214600F082BDD4F8140231
:102CC0002179426820461047D4F8140229468268C8
:102CD0002046104727602560C6F800A027602560C1
:102CE000C4F800B070474FF000524FF400537047E3
:102CF00040F20B1300942847002084F8280410BDEC
:102D0000108840F60F71084003F14001084310801D
:102D10007047016A40F2444211427047306A20F025
:102D200001003062306A20F00400704700F01F019B
:102D30000122400902FA01F17047D4F81012207CF8
:102D400070474FF4EE70FDF7F9BF0A6A40F2444352
:102D50001A4270474FF48970F6214FF489724FF48C
:102D6000857370470423CDE90005204630474FF4B2
:102D7000EC7021464FF4EC722B46704740F2131072
:102D8000F62140F26F12F6237047D1E90123C9689A
:102D90001A4342EA0121826822F47F421143816092
:102DA00081687047002084F83C0020467047276007
:102DB0002560C4F8009070472046302130228C23D3
:102DC00000977047044690F82804012870470C7853
:102DD00048F68F1330F824201A407047706800F0CE
:102DE0000C000828704742F82010704794F8FC0146
:102DF000032870474DF808ED2046FFF7A9FB204651
:102E00005DF808EBFFF7A5BB0020012184F83C002A
:102E100084F83D107047012180F83D100020704774
:102E20002760256032602760256031607047284642
:102E3000302130228C23009770470120012184F833
:102E400028042046FEF760BBA0F840100020704721
:102E500084F83D00002010BD204600F03CBC044634
:102E600090F83D000028704790F83C20044602206E
:102E7000012A7047C4F800B0C4F8009050474FF4DE
:102E800089704FF4867140F26F124FF4867300948C
:102E90002847DAF83C12334601F073BA30F81130A3
:102EA00040F60F74234002F58044234320F811308C
:102EB00070472046FFF7B8BA4B68CA68194600F059
:102EC000BFBA40F2D910214640F2D9123346CDF8AC
:102ED0000080384730F82120B0F8503003EBC101B2
:102EE0007047287840F60F7334F820201A40704756
:102EF00005F1170101204FF4EC72CDF800800B466C
:102F00003847B0F8502002EBC10100EB4101704797
:102F10000220211D84F83D00206800F057BA4FF4CC
:102F20008970F52140F26F12F523009428476FF362
:102F30009F23002B736470470020214600223346F4
:102F4000CDF80080384740F26F10F62140F26F1242
:102F50004FF485737047704710B534481849194AC3
:102F600000685358545864059B0558BF20F004006E
:102F7000002C58BF20F0080013685B0658BF20F0F3
:102F8000100013689B0658BF20F020005358DB0543
:102F900058BF20F040001368DB0458BF20F08000C9
:102FA0001368DB0658BF20F4007013681B0758BF76
:102FB00020F480705158090458BF20F4806010BD7F
:102FC00000FCFFFF080C014018490968814208BF56
:102FD000704704494122C1F80100002008700248EE
:102FE00000F0C9BAEC180020A01B00200F481049BF
:102FF000006820F00800FFF723BE00BF0B480C4913
:10300000006820F00400FFF71BBE00BF0748084916
:10301000006820F00200FFF713BE00BF0348044918
:10302000006820F00100FFF70BBE00BF3C14002039
:103030008C1B0020704780B5FEF788F9BDE8804002
:10304000FFF7D0B8B0B594B04FF4E01002240121DE
:10305000002513904FF4803011940E910C9512902E
:10306000CDE90A100AA8FEF72DFF38BB4FF48060A7
:1030700009950221CDE907500F20CDE9050405A8E7
:10308000FEF752FED0B9002004901020019001A854
:10309000FEF7D8FD90B9FEF7E7FE4FF47A71B0FB6A
:1030A000F1F0FFF78BF80420FFF77CF84FF0FF30CA
:1030B00000210022FEF7DCF914B0B0BD01F086F962
:1030C0000E480F4A016841F001010160416811405A
:1030D0000C4A4160016811400160016821F48021BF
:1030E0000160416821F4FE0141604FF41F018160DD
:1030F00005484FF000610160704700BF00100240BA
:103100000000FFF8FFFFF6FE08ED00E0012809D0FF
:10311000022810D0042816D10D4A0A29C8BF02215E
:10312000516010E00A4A3229C8BF0521002948BF72
:103130000521D16007E0064A3229C8BF05210029D0
:1031400048BF0521916002490A6810430860704732
:103150005000002010B5194801F076F902280DD072
:1031600001281ED1484C207808B1FFF757FF20787E
:1031700078B9FFF77FFDFFF741FF0AE0424C207866
:1031800008B1FFF743FF207818B9FFF773FDFFF789
:103190002DFF01200A4908600A48BDE81040FFF7EA
:1031A00044B9074801680131016040F6B8308142F6
:1031B000F2D10448FDF780F80020EBE7401400202E
:1031C000E81800202422002010B52D4C2068C007EC
:1031D0000CD02C4801F00EF940B9FFF74BFD2A48FE
:1031E00001210170206820F0010020602068800724
:1031F00010D5264801F0FEF860B9052001F018F955
:1032000023484FF400510022FEF796F8206820F082
:10321000020020602068400712D51E4801F0EAF83D
:1032200070B91D4890F8890301F0FCF8002001F006
:103230006BFA1A4801210170206820F00400206018
:103240002068000717D5164801F0D4F898B901F0A6
:10325000E3F81448017809B100210BE00E4C12A1EB
:10326000162204F24E30FCF75DFF15480121C4F828
:103270008803144801701448BDE81040FFF7D5B822
:10328000500000205C000020551400205800002051
:10329000000C014054000020D81400209A1B00208C
:1032A000501400209E1B0020CDE5F220E4E0EDED5F
:1032B000FBF520EEF220414338332021212100008C
:1032C0001603FFFF9C1B00206422002010B53D4C1C
:1032D000206830B1013820603B48BDE81040FFF75E
:1032E000A4B8FFF739FE411C14D000F181014FEA68
:1032F0003111072933D8DFE801F004323232353298
:103300003A3F606880BB00206061206AE8BB6FF4D0
:10331000805050E0206918B16FF04000FFF754FE74
:10332000606918B16FF08000FFF74EFEA06918B118
:103330006FF01000FFF748FEE06918B16FF0200051
:10334000FFF742FE0020C4E90400C4E906001E485D
:10335000FCF7B2FF01202060FDF762F8BCE7FFF741
:1033600033FE2CE0606860B101386060B4E7A068AB
:1033700068B10138A060AFE7E06888B10138E0606B
:10338000AAE700202061206A98B1013816E0E069C0
:10339000A8B16FF48040FFF717FE0020E0610EE057
:1033A000A06960B16FF40050FFF70EFE0020A0612D
:1033B00005E06FF40060FFF707FE02202062FFF7D0
:1033C00059FC89E7AC140020A422002070B5194AEA
:1033D0000368904216D0B0F1804F05D0164CA04241
:1033E00002D0164CA04203D14C6823F07003234353
:1033F000B0F1804F0AD0104CA04207D00F4CA04231
:1034000004D007E04C6823F070032343CC6823F416
:10341000407323434E6923F080030C688D68334367
:1034200090420360C562846201D109691163012180
:10343000416170BD002C01400008004000040040C4
:1034400010B5036A046A24F001040462846924F05C
:10345000F00444EA0212826123F00A02114301627D
:1034600010BD036A23F010030362836923F47043E1
:1034700043EA0232036A826123F0A00242EA0111A8
:1034800001627047D0F81802002180F85410002023
:103490007047B0B5D0E98652044628786978D2687A
:1034A0009047204601212A46412300F0C3FA00201C
:1034B000B0BD10B58121044600F0C4F920460121B9
:1034C00000F0C0F9D4F8180250B1D4F81C0280689A
:1034D0008047D4F8180200F0F4FC0020C4F8180269
:1034E000002010BD10B5D0F81842216D012908D177
:1034F000D0F81C0222786178C368104698470020F3
:103500002065002010BD000029210180004870477F
:10351000E40000200A210180004870471C010020BF
:1035200070B5812103224023044600F071FA204641
:10353000012103224023012500F06AFA582000F0FF
:10354000C1FCC4F8180268B10025064680F8545042
:10355000D4F81C02406880472046012132464123AE
:1035600000F068FA284670BD19B1C0F81C1200209E
:1035700070470220704710B513460A4690F8FC11B8
:1035800003290AD1D0F8181291F854402CB901241B
:1035900081F85440812100F0EBFA002010BD0000BA
:1035A00010B50A78D0F8183212F060020FD0202A35
:1035B0002CD14A78023A092A2AD8DFE802F00522FB
:1035C00029292929292D343703F148011BE04A789C
:1035D0000B2A10D00A2A11D0062A17D1CA78212A1C
:1035E00027D0222A2BD1CA881C2A28BF1C22D0F817
:1035F0001C12096808E08878D86407E003F14C01E0
:1036000001E003F14401012200F058F8002010BD50
:1036100000F031F8022010BD01221A658A7919469E
:1036200000F034F8F2E7C8789864EFE788785864D7
:10363000ECE7CA880349092A28BF0922E4E70022E7
:103640000021E1E71001002080B5D0F81422526873
:103650009047002080BD80B513460A46002100F047
:10366000E9F9002080BD80B513460A46002100F02C
:103670007FFA002080BD10B58021044600F052FA88
:1036800020460021BDE8104000F04CBA80B513463A
:103690000A460321C0F8F4110021C0E9423300F0CA
:1036A000C9F9002080BD80B5052100220023C0F8A3
:1036B000F411002100F0BEF9002080BD80B5134652
:1036C0000A460221C0F8F4110021C0E9063300F0D7
:1036D0004FFA002080BD80B5042100220023C0F8ED
:1036E000F411002100F044FA002080BD10B5334CE5
:1036F0000A4602A0FFF7DFFA204610BD4375737437
:103700006F6D2048494420436F6E66696700000072
:1037100012200880004870473801002010B5274C5F
:103720000A4602A0FFF7C7FA204610BD437573741E
:103730006F6D2048494420496E7465726661636507
:103740000000000004200880004870474C01002061
:1037500010B51A4C0A4602A0FFF7ADFA204610BD7C
:103760005365726769795F383320285338332900ED
:1037700010B5124C0A4602A0FFF79DFA204610BD74
:1037800053383320437573746F6D2048756D616EC7
:1037900020696E74657266616365000010B5074C40
:1037A0000A4602A0FFF787FA204610BD30303030BD
:1037B000303030303030314100000000301900200E
:1037C000B0B5D8B100230446257815B101340133D2
:1037D000FAE7DCB2022303EB440414800C700322EA
:1037E00001240A5502784AB1DCB29D1C01300A5509
:1037F00043F001022B46D4B20022F2E7B0BD88B1FB
:1038000080B5D0F8143213B10023C0F8143209B1D6
:10381000C0F810120121027080F8FC1100F0A4F829
:10382000002080BD0220704780B5D0F82002FDF74F
:1038300099FEC1000223D54A042838BF22FA01F3B9
:10384000D8B280BD80B5D0F82002FDF76DFEC10072
:103850000223CE4A042838BF22FA01F3D8B280BD31
:10386000B0B5044659B1D4F814024269002A46D0D2
:1038700094F8FC01032842D1204690473FE0D4F859
:10388000F401022834D1D4E9071081420ED9081A74
:10389000114683B2E06120461A46FFF7E4FE204657
:1038A00000210022002300F0C5F821E0A169B1FB4E
:1038B000F0F202FB101272B981420CD3D4F8F80175
:1038C000814208D22046002100220025FFF7CBFECE
:1038D000C4F8F851E3E7D4F81402C16829B194F8A8
:1038E000FC01032801D1204688472046FFF7DBFE74
:1038F00094F80002012804BF002084F80002002090
:10390000B0BD10B5044651B1D4F81402826942B377
:1039100094F8FC01032824D12046904721E0D4F8F4
:10392000F40103281DD1D4E9431081420CD9091AAE
:10393000C4F80C11814238BF084683B211462046B4
:103940001A46FFF788FE0CE0D4F81402016929B189
:1039500094F8FC01032801D1204688472046FFF750
:10396000BAFE002010BD0000B0B5044619481A4D3B
:10397000002102220823C4F82002C0F85C44C0E9F8
:1039800006110162C0E90053C0E90221FEF795F873
:1039900020B112A04FF4977100F018FDD4F8200266
:1039A000134D002100221823A847D4F820028021BB
:1039B00000225823A847D4F820028121002298230E
:1039C000A847D4F8200201210022D823A8470020CC
:1039D000B0BD00BFC41D0020005C00402E2E2F5340
:1039E00072632F757362645F636F6E662E6300008F
:1039F000DD140008D0F8200201F07F02090600EB78
:103A0000421000F12A0258BF00F22A2210787047B3
:103A100010B51446D0F820021A462346FDF7C3FD20
:103A2000C1000223594A042838BF22FA01F3D8B250
:103A300010BD00BF80B5D0F82002FDF7D4FDC10055
:103A40000223524A042838BF22FA01F3D8B280BDBB
:103A5000B0B500210022402304464025FFF7D8FFDF
:103A60002046802100224023C4F81051FFF7D0FFE8
:103A70000120256284F8FC01D4F8180208B1FFF790
:103A80001DF90020B0BD90F8FD1180F8FC11002058
:103A9000704780B590F8FC11032904D1D0F81412B6
:103AA000C96901B18847002080BD017400207047BA
:103AB00080B5D0F82002FEF790F8C1000223334A07
:103AC000042838BF22FA01F3D8B280BDB0B500F5A2
:103AD00002750446284600F05BF8B4F80E12012087
:103AE000C4E97D0194F8080200F01F01022907D003
:103AF00001290AD071B92046294600F06DF80EE080
:103B00002046294600F072F909E02046294600F0D7
:103B1000C0F904E000F08001204600F003F8002026
:103B2000B0BD000080B5D0F82002FDF770FDC100E7
:103B30000223164A042838BF22FA01F3D8B280BD06
:103B400080B5D0F82002FEF75DF8C10002230F4ACD
:103B5000042838BF22FA01F3D8B280BD90F8FC11D6
:103B600080F8FD11042180F8FC110020704700004E
:103B700080B5D0F82002FDF772FDC1000223034A90
:103B8000042838BF22FA01F3D8B280BD0002010236
:103B90000A7802704A7842704A8842808A88828015
:103BA000C988C180704719B1C0F81412002070474D
:103BB0000220704780B5D0F8142232B112689047C5
:103BC000002818BF0120400080BD022080BD80B5C4
:103BD000FFF7B6FF002080BDBCB504464878092831
:103BE00000F2B8800D46DFE800F00518B525B531C4
:103BF0006DB54F5C94F8FC0100F0FE00022840F027
:103C0000A980D4F8040203222146002808BF01221B
:103C100041F80C2F20460222C7E094F8FC0100F086
:103C2000FE00022840F096806888012840F09580C8
:103C3000002004E06888012840F08F800120C4F84B
:103C40000402FFF741F8FFF707F986E0A88800288B
:103C500040F08080E888002840F07C80FFF7C6F8BC
:103C600000F07880A87800F07F052046294684F887
:103C7000FE51FFF71DFFFFF7EFF8002D0CBF0120ED
:103C8000022084F8FC0168E0E888012862D1FFF78F
:103C9000ADF82CD002285DD10020214641F8080F54
:103CA00026E06888504DC1B22870022952D2FFF731
:103CB0009DF820D002284DD10029C4D0032084F8DB
:103CC000FC0122E068884FF0FF3101EB102106294A
:103CD00040D8DFE801F0042E223F3F343D00FFF7DB
:103CE0002CF80A680DF106019047014650E0211DAD
:103CF0002046012259E0002931D060680128A2D075
:103D0000C1B22046FFF7A0FC297820466160FFF78A
:103D100051FF02287FF497AF1CE0C1B2052947D8B4
:103D2000DFE801F0034E52565A5EFFF706F84A6884
:103D3000D8E7217CD4F81402D1B1C16A19E0207C03
:103D400040B9D4F81402416B0DF106008847CCE766
:103D5000207CA0B12046FFF78EFC0020BCBD0020D7
:103D60006060022084F8FC012046FFF76DFC6AE7E2
:103D7000816A0DF1060088470146022007E0D4F869
:103D80001402016B0DF106008847014607204870B8
:103D9000BDF806000028E0D0EA88002ADDD0904275
:103DA00038BF0246ADF806202046FFF787FCD4E76F
:103DB000D4F814020DF10602836B2046984794E76D
:103DC000FEF7BBFF8A688DE7FEF7B7FFCA6889E791
:103DD000FEF7B3FF0A6985E7FEF7AFFF4A6981E79F
:103DE000FEF7ABFF8A697DE72D190020B0B50446C8
:103DF00008780D4600F06000202802D1FEF764FF2D
:103E000045E06878297970B1012826D003283ED191
:103E1000FEF7ECFF24D16888A8BB480633D02046C3
:103E2000FFF780FE2FE0FEF7E1FF19D101F07F00E0
:103E30000A0604EB001000F1140558BF00F5827566
:103E40002046FFF7D7FD002818BF0120286029462B
:103E500020460222FFF732FC19E0FEF7C7FF0BD025
:103E6000022805D1480612D02046FFF75BFE0EE07F
:103E70002046FFF700FC0AE0688840B9480604D0F5
:103E80002046FFF7D1FCFEF71FFFFEF7E5FF0020FD
:103E9000B0BDB0B5044690F8FC01032804D1888871
:103EA0000D4610F0FE0F04D02046FFF7E4FB002083
:103EB000B0BDFEF709FFE8880028F8D1FEF7CCFF77
:103EC000F5E7704700487047301B0020F0B5CA780E
:103ED000032A08D8DFE802F002090E11FEF777FF87
:103EE00002F500720DE00C780DE0FEF770FF02F5B0
:103EF000806206E0FEF76BFF03E0FEF768FF02F565
:103F0000C06220F82420620040F60F7530F81230AD
:103F10002B40584D23432B4320F8123000EB420234
:103F200048F280038D7AD5B3158840F60F66354088
:103F300003F5807635431580B0F85050CE8805EBF8
:103F4000C40526F0010600EB4505C5F80064B0F88D
:103F5000505005EBC40400EB44000C8924F001042C
:103F6000C0F808441088497800F4804081B308B153
:103F7000FEF78BFE1088400601D5FEF7C1FE1088C3
:103F800040F60F71084003F58041084340F63F7149
:103F900010801088084043F60F71184331E0B0F8E4
:103FA00050504F7805EBC4068D8825F001056FB39E
:103FB00000EB4600C0F800541088400601D5FEF71B
:103FC0009FFE108840F63F71084003F120014CE04D
:103FD00008B1FEF75AFE1088400601D5FEF790FEA4
:103FE000108840F60F71084003F14001084343F682
:103FF0000F7110801088084003F54051484040F68A
:104000003F7110801088084018432FE000EB4606EF
:10401000E400C6F80854B0F85050096900F20C40AA
:104020002C443F290ED34FF4F845CE0605EA41153E
:104030004FEA411108BF05F5F84101F4F84101F5D7
:10404000004105E001F0010505EB5101890289B24B
:1040500040F814101088400401D5FEF716FE1088B1
:1040600043F60F71084003F540514840108000208E
:10407000F0BD00BF8080FFFF00207047F0B50A78D8
:104080008D7A4C78510030F8223048F2800225B306
:1040900003F480434CB30BB1FEF700FF30F811304E
:1040A00002F5804540F63F745B0643F60F7309D571
:1040B00030F8116040F60F773E4002F140073E4372
:1040C00020F8116030F8116040F60F773E4035431C
:1040D00020F8115048F280051DE0A4B15B0640F6BF
:1040E0003F731ED502F1400513E00BB1FEF7D6FE7B
:1040F00030F8113002F1400543F60F745B0640F6CC
:104100003F73D5D4DEE75B0443F60F7309D502F5A0
:10411000804540F60F7430F8116034402C4320F88D
:10412000114030F8114023401A4320F8112000209C
:10413000F0BD00207047002070470121A0F840101A
:104140000021A0F84010A0F84410A0F85010B0F8DA
:10415000401041F43F41FEF777BEB0F8401044F202
:10416000FF221140FEF770BE0020704770B50B783B
:104170004C78590030F8232044B1520648F2B0037D
:1041800040F63F7213D50E4C103408E052044BF247
:10419000800343F60F720AD5714C04F5805430F851
:1041A000115040F60F7635402C4320F8114030F87E
:1041B000114022405A4020F81120002070BD00BF5D
:1041C000B080FFFF10B50A785AB130F822304C7831
:1041D000520049F2800174B140F63F74A1F57F614D
:1041E0000BE0018843F63F731940074B10335940E9
:1041F00020F8221005E043F60F742340594020F8C0
:104200001210002010BD00BF8090FFFFF8B50446DB
:1042100008698E690D46311A38BF0021A96188BF2F
:1042200006466878A97A012824D139B32878B3B230
:1042300034F82010B4F8502002EBC00004EB40002A
:10424000C0F8046448064FF0080058BF06202A5AF8
:104250006969204600F0AAF8687848F2B0010028A1
:104260003FD0012845D1FEF73CFE3D4B1A4302F5F5
:1042700080523BE0B1B1D8B1287864E0AA8869697E
:10428000B3B2204600F092F82878B4F8501040F607
:104290003F7201EBC00104EB4101C1F8046448F234
:1042A000B00154E02878B4F8501001EBC0012FE0C1
:1042B0002878B4F8501004F20443C20001EBC001A6
:1042C0003F2E1AD34FF4F845F70605EA46154FEA94
:1042D000461708BF05F5F84707F4F84505F500450A
:1042E00011E0FEF7FEFD01F110031A4324F820202F
:1042F00000E0287840F63F7229E006F0010505EB62
:104300005605AD02ADB243F81150B4F85010114447
:1043100004F20C423F2E0ED34FF4F843F50603EAA5
:1043200046134FEA461508BF03F5F84505F4F84370
:1043300003F5004305E006F0010303EB56039B027F
:104340009BB242F8113043F60F724BF2800134F801
:1043500020301A40514024F820100020F8BD00BF42
:1043600080B0FFFFB0F8401041F43F41FEF76CBD54
:104370000148FDF787B900BFC41D0020B0F8440014
:10438000704700EB42005A1C00F58060520822B1D1
:1043900008C8013A21F8023BF9E77047002070474E
:1043A00011B98021A0F84C100020704700EB4200AA
:1043B0005A1C00F5806052082AB131F8023B013ADC
:1043C00020F8043BF8E77047FEE70000BA4C2046AF
:1043D0004FF400410122FCF7AFFF3C20FCF7BCFE8C
:1043E00020464FF400410022FCF7A6FF3C20FCF7DA
:1043F000B3FEECE7016811B10168013901600068A2
:10440000704700000F493228C8BF0520002848BF68
:104410000520C860704700BF014804210160704753
:104420005014002007490A28C8BF0220486070477E
:1044300004493228C8BF0520002848BF05208860ED
:10444000704700BF50000020B0B5C2680168838883
:104450004FF0FF3582608C681C4208BF6FF0010589
:10446000C3888968194208BF25F00205C560E81CA9
:1044700005F10200B0FA80F04FEA501008BF0220A8
:10448000511C18BF0020B0BD9E480021417000F0B3
:1044900015B900BF9B480121417000F00FB900BF62
:1044A00084B0FCF75DFFFEF7CDFDFEF75FFAFEF787
:1044B000A5FBFEF7FFFAFEF733FBFEF765FBFFF700
:1044C000E3FF00275F4C0A22ADF80C70CDE90177BD
:1044D00001AD2046294600F01FF904F10C002946E1
:1044E0000A2200F019F9642000F004F9FEF736F80A
:1044F000FFF7D0FFFCF750F8FCF75EF8FCF7F2FA94
:104500005148FBF7BFFFDFF84C81514DDFF85C915C
:10451000DFF870A1DFF874B14F4C554E08F24E3001
:1045200000902878A0B32F7098F8B002C00704D18B
:104530002068012804D1002000E0012000F0E4F808
:104540002068012805D1FCF783FA02200521FEF737
:10455000DDFD2068E0B94148006801280DD1002048
:1045600000F0D2F80020FCF7DDFBFCF7BBFA37487F
:10457000FEF778FB3A4901200870384800680228A5
:1045800004D1FBF7F5FF002000F0BEF800F082F840
:10459000344800783448007899F80000A0B141F61A
:1045A0000100308089F80070FBF7F4FFB070F01C58
:1045B00030A10C22FBF7B6FD314831464122FEF70F
:1045C000DAFF2248FEF74EFB9AF8000068B18AF83D
:1045D00000702D4AD8F80D03D8F8111310605160FF
:1045E000FCF780FA1948FEF73DFB9BF80000002815
:1045F00097D08BF8007098F88903FFF713FF2068B5
:1046000018B1206802287FF48CAF2068022809D1F5
:10461000FBF7AEFF1E4998F888030978814288BFEE
:1046200000F038F8022000F06FF8B8F88A2398F804
:1046300088130098FCF700FB98F889130420FEF714
:1046400065FD6EE73800002064220020000C014068
:104650009A1B0020D8140020D0140020D41400206D
:10466000551400209D1B00209B1B0020981B002040
:10467000EC1800204F637420313220323032330086
:10468000A01B0020991B0020901B00209C1B0020D9
:104690005414002010B5084C4FF40041012220466C
:1046A000FCF74AFEFCF74CF820464FF4004100228C
:1046B000BDE81040FCF740BE000C0140E0B51148D9
:1046C000017842780320B1FBF0F01F2828BF1F209B
:1046D00090FAA0F0C00E8DF8070012B980308DF866
:1046E000070003480DF10701012200F015F88CBD09
:1046F0009C1400200349642828BF64200870FFF739
:10470000DDBF00BFA814002002490A684A600860A3
:10471000704700BFD01400202DE9F04789460446B9
:1047200041890068904600224FF0000AFCF704FE21
:10473000114DC24519D099F800600027072F0FD8F6
:10474000F2B2E1882068D209A847A1882068002237
:10475000A847A18820680122A84701377600EDE725
:1047600009F101090AF1010AE3E7618920680122E0
:10477000BDE8F047FCF7E0BD3913000802E008C8C7
:10478000121F08C1002AFAD170477047002001E0CB
:1047900001C1121F002AFBD170470000AA010020AE
:1047A000BC01002004020020F20100205001002082
:1047B00062010020CE010020280200201602002005
:1047C00074010020E00100208601002098010020F3
:1047D00000000000000000000102030406070809B1
:1047E0000000000068F5120096B3917C00001500EF
:1047F0000000000068F5120096B3917C00001500DF
:104800000000000068F5120096B3917C00001500CE
:104810000000000068F5120096B3917C00001500BE
:104820000000000068F5120096B3917C00001500AE
:104830000000000068F5120096B3917C000015009E
:104840000000000068F5120096B3917C000015008E
:104850000000000068F5120096B3917C000015007E
:104860000000000068F5120096B3917C000015006E
:104870000000000068F5120096B3917C000015005E
:104880000000000068F5120096B3917C000015004E
:104890000000000068F5120096B3917C000015003E
:1048A0000000000068F5120096B3917C000015002E
:1048B0000000000068F5120096B3917C000015001E
:1048C0000000000068F5120096B3917C000015000E
:1048D0000000000068F5120096B3917C00001500FE
:1048E0000000000068F5120096B3917C00001500EE
:1048F0000000000068F5120096B3917C00001500DE
:104900000000000068F5120096B3917C00001500CD
:104910000000000068F5120096B3917C00001500BD
:104920000000000068F5120096B3917C00001500AD
:104930000000000068F5120096B3917C000015009D
:104940000000000068F5120096B3917C000015008D
:104950000000000068F5120096B3917C000015007D
:104960000000000068F5120096B3917C000015006D
:104970000000000068F5120096B3917C000015005D
:104980000000000068F5120096B3917C000015004D
:104990000000000068F5120096B3917C000015003D
:1049A0000000000068F5120096B3917C000015002D
:1049B0000000000068F5120096B3917C000015001D
:1049C0000000000068F5120096B3917C000015000D
:1049D0000000000068F5120096B3917C00001500FD
:1049E00000000000000000000000000000000000C7
:1049F000183C3C3C3C3C18181818000018180000E3
:104A00006666660000000000000000000000000074
:104A1000000066666666FF6666FF6666666600009C
:104A20000018187EDBDB1F1C38F8DBDB7E18180053
:104A300000C2476525371218084CE4A6A2E34100DE
:104A4000001E332121331E0C9EF3612161F39E0071
:104A5000181810080000000000000000000000000E
:104A6000301818180C0C0C0C0C0C0C0C18181830F6
:104A70000C18181830303030303030301818180C0E
:104A80000000000000663CFF3C66000000000000E3
:104A900000000000001818FF1818000000000000B7
:104AA00000000000000000000000000018181008BE
:104AB00000000000000000FF0000000000000000F7
:104AC00000000000000000000000000018180000B6
:104AD00000C0C06060303018180C0C0606030300DC
:104AE0003C66C3C3C3C3C3C3C3C3C3C3663C0000E4
:104AF000181C1F18181818181818181818FF000074
:104B00003C66C3C3C0C06030180C060303FF00003E
:104B10003C66C3C3C0403C40C0C0C3C3663C000049
:104B200018180C0C0C060636333333FF30300000F7
:104B3000FF030303033F60C0C0C0C3C3663C000063
:104B4000F0180C0606033F63C3C3C3C3663C0000F2
:104B5000FFC0C0C060606030303018181818000006
:104B60003C66C3C3C3663C66C3C3C3C3663C0000A4
:104B70003C66C3C3C3C3C6FCC0606030180F0000EE
:104B800000000000001818000000000018180000C5
:104B9000000000000018180000000000181810089D
:104BA00000006030180C0603060C1830600000008E
:104BB000000000000000FF0000FF000000000000F7
:104BC0000000060C183060C06030180C06000000B1
:104BD000007EE7C3C0E060303018180000181800ED
:104BE000003E6341C1F9CDCDCDEDD90101633E0059
:104BF0003C66C3C3C3C3C3C3FFC3C3C3C3C30000B3
:104C00003F63C3C3C3633F63C3C3C3C3633F000006
:104C10003C66C3C3030303030303C3C3663C000032
:104C20003F6363C3C3C3C3C3C3C3C363633F000062
:104C3000FF03030303037F030303030303FF0000D6
:104C4000FF0303030303037F0303030303030000C2
:104C50003C66C3C3030303F3C3C3C3C3663C000082
:104C6000C3C3C3C3C3C3FFC3C3C3C3C3C3C300005E
:104C7000FF181818181818181818181818FF000016
:104C8000C0C0C0C0C0C0C0C0C0C0C3C3663C00007C
:104C9000C3C36373331B0F0F1B337363C3C30000A2
:104CA00003030303030303030303030303FF0000DE
:104CB000C3C3C3E7E7E7FFDBDBDBC3C3C3C300005A
:104CC000C3C3C7C7CFCBDBD3F3E3E3C3C3C3000086
:104CD0003C66C3C3C3C3C3C3C3C3C3C3663C0000F2
:104CE0003F63C3C3C3C3633F030303030303000062
:104CF0003C66C3C3C3C3C3C3C3C3C3C3663C306042
:104D00003F63C3C3C3C3633F3363636363C30000D1
:104D10003C66C3C3030F1E78F0C0C3C3663C0000EB
:104D2000FF1818181818181818181818181800004C
:104D3000C3C3C3C3C3C3C3C3C3C3C3C3663C0000AD
:104D4000C3C3C3C3C3C3666666243C3C18180000D3
:104D5000C3C3C3C3C3C3DBDBDB6666666666000032
:104D6000C3C3C3C366663C3C6666C3C3C3C300001B
:104D7000C3C3C3C3C3C3667E3C1818181818000009
:104D8000FFC0C0606030180C0C06060303FF000073
:104D90003C0C0C0C0C0C0C0C0C0C0C0C0C3C00000B
:104DA000030306060C0C181830306060C0C0000009
:104DB0003C3030303030303030303030303C00003B
:104DC00000187CE700000000000000000000000068
:104DD00000000000000000000000000000FF0000D4
:104DE000001818081000000000000000000000007B
:104DF00000000000007CC2C0FEC3C3C3E3DE0000AD
:104E000003030303033B67C3C3C3C3C3673B000080
:104E100000000000007CC60303030303C67C0000FF
:104E2000C0C0C0C0C0DCE6C3C3C3C3C3E6DC00006F
:104E300000000000003C66C3C3FF0303C67C000003
:104E400078CC0C0C0C7F0C0C0C0C0C0C0C0C00001B
:104E50000000000000DCE6C3C3C3C3E6DCC0673C5F
:104E600003030303033B67C3C3C3C3C3C3C300003C
:104E700018180000001E181818181818187E0000BE
:104E800030300000003C3030303030303030361CB4
:104E90000303030303C363331B0F1F3363C3000008
:104EA0001E1818181818181818181818187E000046
:104EB000000000000067FFDBDBDBDBDBDBC30000A7
:104EC00000000000003B67C3C3C3C3C3C3C30000EB
:104ED00000000000003C66C3C3C3C3C3663C0000BF
:104EE00000000000003B67C3C3C3C3C3673B0303A9
:104EF0000000000000DCE2C3C3C3C3C3E2DCC0C0E7
:104F0000000000000073FF07030303030303000016
:104F100000000000007EC3030E1870C0C37E0000B6
:104F200000181818187E181818181818187000008B
:104F30000000000000C3C3C3C3C3C3C3E3DE00005B
:104F40000000000000C3C3C3C3C366243C180000B4
:104F50000000000000C3DBDBDBDBDB666666000015
:104F60000000000000C3C3667E187E66C3C3000055
:104F70000000000000C3C3C3C3C366663C180C072F
:104F80000000000000FFC06030180C0603FF0000A6
:104F9000701818181818180C181818181818700005
:104FA0001818181818181800181818181818181899
:104FB0001C303030303030603030303030301C0019
:104FC00000000000000000000000000000000000E1
:104FD00000000000000000000000000000000000D1
:104FE00000000000000000000000000000000000C1
:104FF00000000000000000000000000000000000B1
:10526000FF03030303037F030303030303FF0000A0
:10527000000000000000000000000000000000002E
:10528000000000000000000000000000000000001E
:10529000000000000000000000000000000000000E
:1052A00000000000000000000000000000000000FE
:1052B00000000000000000000000000000000000EE
:1052C00000000000000000000000000000000000DE
:1052D00000000000000000000000000000000000CE
:1052E00000000000000000000000000000000000BE
:1052F00000000000000000000000000000000000AE
:10530000000000000000000000000000000000009D
:10531000000000000000000000000000000000008D
:10532000000000000000000000000000000000007D
:10533000000000000000000000000000000000006D
:10534000000000000000000000000000000000005D
:10535000000000000000000000000000000000004D
:1053600000666600003C66C3C3FF0303C67C000002
:10537000000000000000000000000000000000002D
:10538000000000000000000000000000000000001D
:10539000000000000000000000000000000000000D
:1053A00000000000000000000000000000000000FD
:1053B00000000000000000000000000000000000ED
:1053C00000000000000000000000000000000000DD
:1053D00000000000000000000000000000000000CD
:1053E000FCC6C3C3C3C3C3C3FFC3C3C3C3C300009B
:1053F000FF03030303033F63C3C3C3C3633F00004F
:105400003F63C3C3C3633F63C3C3C3C3633F0000FE
:10541000FF03030303030303030303030303000066
:1054200078646666666666666666666666FFC3C3B9
:10543000FF03030303037F030303030303FF0000CE
:10544000DBDB5A5A7E3C18183C7E5A5ADBDB0000E4
:105450003E63C1C0C0607860C0C0C0C1633E000090
:10546000C3C3C3C3E3E3F3D3DBCBCFC7C7C30000DE
:1054700018DBC3C3E3E3F3D3DBCBCFC7C7C3000061
:10548000C3C36373331B0F0F1B337363C3C30000AA
:10549000F8CCC6C3C3C3C3C3C3C3C3C3C3C3000021
:1054A000C3C3C3E7E7E7FFDBDBDBC3C3C3C3000062
:1054B000C3C3C3C3C3C3FFC3C3C3C3C3C3C3000006
:1054C0003C66C3C3C3C3C3C3C3C3C3C3663C0000FA
:1054D000FFC3C3C3C3C3C3C3C3C3C3C3C3C30000E6
:1054E0003F63C3C3C3C3633F03030303030300005A
:1054F0003C66C3C3030303030303C3C3663C00004A
:10550000FF18181818181818181818181818000064
:10551000C3C3C3C3C3C3C3FEC0C0C0C3C37E0000F4
:1055200018187EDBDBDBDBDBDB7E181818180000CD
:10553000C3C3C3C366663C3C6666C3C3C3C3000043
:1055400063636363636363636363636363FFC0C0D5
:10555000C3C3C3C3C3C3C3FEC0C0C0C0C0C0000078
:10556000DBDBDBDBDBDBDBDBDBDBDBDBDBFF00001D
:10557000DBDBDBDBDBDBDBDBDBDBDBDBDBFFC0C08D
:105580000F0D0D0C0C0C3C6CCCCCCCCC6C3C00004E
:10559000C3C3C3C3C3C3CFDBF3F3F3F3DBCF000059
:1055A0000303030303033F63C3C3C3C3633F000099
:1055B0003C66C3C3C0C0FCC0C0C0C3C3663C0000DF
:1055C0003179CDCDCDCDCFCFCDCDCDCD7931000081
:1055D000FCC6C3C3C3C3C6FCCCC6C6C6C6C3000094
:1055E00000000000007CC2C0FEC3C3C3E3DE0000B5
:1055F0000000C07E03033B67C3C3C3C3663C000017
:1056000000000000007FC3C3C37FC3C3C37F00008B
:1056100000000000007F6303030303030303000093
:1056200000000000007864666666666666FFC3C3B5
:1056300000000000003C66C3C3FF0303C67C0000FB
:10564000000000000049496B3E3E3E6B49490000A6
:1056500000000000003E63C1603860C1633E00008E
:105660000000000000C3C3C3E3F3DBCFC7C30000E7
:105670000000203010C3C3C3E3F3DBCFC7C3000077
:105680000000000000C363331B0F1F3363C300001F
:105690000000000000FCC6C3C3C3C3C3C3C30000F3
:1056A0000000000000C3E7E7FFDBDBC3C3C300006B
:1056B0000000000000C3C3C3C3FFC3C3C3C30000D3
:1056C00000000000003C66C3C3C3C3C3663C0000C7
:1056D0000000000000FFC3C3C3C3C3C3C3C30000B3
:1056E00000000000003B67C3C3C3C3C3673B0303A1
:1056F00000000000007CC60303030303C67C000017
:105700000000000000FF18181818181818180000DA
:105710000000000000C3C3C3C3C366663C180C0787
:105720000000000000187EDB9999DB7E181800004D
:105730000000000000C3C3667E187E66C3C300007D
:1057400000000000006363636363636363FFC0C0C2
:105750000000000000C3C3C3C3FEC0C0C0C000003F
:105760000000000000DBDBDBDBDBDBDBDBFF000062
:105770000000000000DBDBDBDBDBDBDBDBFFC0C0D2
:1057800000000000000F0D0D7CCCCCCCCC7C0000C8
:105790000000000000C3C3C3DFF3F3F3F3DF000036
:1057A00000000000000303037FC3C3C3C37F0000E6
:1057B00000000000003E63C0C0FCC0C0633E0000AB
:1057C000000000000073DB8B8B8F8B8BDB73000082
:1057D0000000000000FCC6C2C6FCD8CCC6C3000056
:1057E00000000000000000000000000000000000B9
:1057F00000000000200040004800380010000000B9
:105800000000000000000000000000000000000098
:105810000000000000000000000000000000080080
:1058200040008040B0C2C903C924C103A0A17020B8
:105830003000000000000000000000000000000038
:105840000000000000000000000000003000906038
:10585000D144EA08F28AF2ABF2ABF2ABF26AE1E7CA
:10586000C0E36820100000000000000000000000FD
:10587000000000000000000000004000B0A1E9E7C7
:10588000EAAAF2CBEAAAEA49EA49EA69EAAAF2CB29
:10589000F2AAD9868860180000000000000000000D
:1058A00000000000000000003000B8A2EA08EACBC7
:1058B000EAAAEAAAE1E7F492FEDBE2EBD9E7E269C1
:1058C000EA8AF2CBE1A68840080000000000000050
:1058D00000000000000008009861D986EA8AEAAA60
:1058E000E208D9E7DA08FE79FFFFF471D9E7D9E7D2
:1058F000D9E7E249F2ABD14450200000000000009B
:105900000000000000004820D124D9A6DA08D9C739
:10591000EBEFF514E249FE38FFFFEC51E28AF47137
:10592000E28AD9A6E269EA49A881100000000000D5
:105930000000000000008060D945D9E7D9A6EB6DD2
:10594000FFFFFFFFEB4DFE18FFFFF410F471FFFFA8
:10595000FEBAE228D9C7EA69D1244000000000005D
:10596000000000000000A060D165D9E7E1E7FEFB80
:10597000FFFFF575EAAAFE79FFFFF492EB0CFF1C1E
:10598000FFFFF4B2D965E228E18670400000000014
:10599000000000000000B060D145D9A6EB4DFFFF2C
:1059A000FF3CEB0CEAEBFE9AFFFFF4F3E269F471C3
:1059B000FFFFFEDBD9C7D9C7D98698610000000078
:1059C000000000005040B060C104D986EBEFFFFF3B
:1059D000FE18E2CBEB6DF492FDB6EBCFE32CEB6D52
:1059E000FFFFFF7DE228D9A6D9869881000000003C
:1059F000000000003820A860B882D985EBAEFFFF18
:105A0000FEBAE2AAEB8EEB8EEB4DEBAEE30CEBAE07
:105A1000FFFFFF3CE1E7D9A6D965806000000000E8
:105A20000000000008009080B041C904EA8AFF7DB0
:105A3000FFDFF410E269EB4DEB6DE30CE269FDF77B
:105A4000FFFFF596D965D9C7C8E3502000000000D4
:105A50000000000000005840B861A861D145F4F38F
:105A6000FFFFFF9EF471EAEBEACBEB2CFDB6FFFFE4
:105A7000FFDFE2AAD9A6D145A860200000000000FF
:105A80000000000000001800A081B041B061D9659D
:105A9000FDF7FFFFFFFFFF5DFEFBFFDFFFFFFFDF07
:105AA000EBCFD986C945B861704000000000000006
:105AB00000000000000000004020B881A841A8407C
:105AC000C8E3EC10FE9AFFDFFFFFFF7DFDF7EAEB76
:105AD000D145C0E4B041986018000000000000000B
:105AE000000000000000000000005840B881B041F4
:105AF000A820B000C0C3D1C7DA28D1A6C8C3B882D5
:105B0000A861B041A0802820000000000000000033
:105B10000000000000000000000000005020A881EC
:105B2000B861B061A820A800A800A800A821B041D1
:105B3000B861886020000000000000000000000044
:105B40000000000000000000000000000000200035
:105B500068409861A881B081B081B081A8818861D6
:105B6000504008000000000000000000000000009D
:105B70000000000000000000000000000000000025
:105B8000000020005840886090607860402010003D
:105B90000000000000000000000000000000000005
:105BA00000000000000000000000000000000000F5
:105BB00000000000000000000000000000000000E5
:105BC00000000000000000000000000000000000D5
:105DB000000000000000000000000336FFFFFFFFAE
:105DC000FFFFB32000000000000000000336FFFFCB
:105DD000FFFFFFFFB32000000000000000000000F4
:105DE00000000000000000000336FFFFFFFFFFFF80
:105DF000FFFFFFFFB320000000000336FFFFFFFF9F
:105E0000FFFFFFFFFFFFB3200000000000000000C5
:105E100000000000000000003C9BFFFFFFFFFFFFB1
:105E2000FFFFFFFFDC87000000003C9BFFFFFFFF40
:105E3000FFFFFFFFFFFFDC87000000000000000005
:105E400000000000000000000336FFFFFFFFFFFF1F
:105E5000FFFFFFFFB320000000000336FFFFFFFF3E
:105E6000FFFFFFFFFFFFB320000000000000000065
:105E7000000000000000000000000336FFFFFFFFED
:105E8000FFFFB32000000000000000000336FFFF0A
:105E9000FFFFFFFFB3200000000000000000000033
:105EA00000000000000000000000000000000000F2
:105EB00000000000000000000000000000000000E2
:105EC00000000000000000000000000000000000D2
:105ED00000000000000000000000000000000000C2
:105EE00000000000000000000000000000000000B2
:105EF00000000000000000000000000000000000A2
:105F00000000000000000000000000000000000091
:105F10000000000000000000000000000000000081
