:020000040800F2
:10000000D826002001010008253A00085D320008CA
:10001000213A0008C50100083D5500080000000015
:10002000000000000000000000000000B13B0008DC
:100030007D03000800000000293A0008B53B0008D5
:100040001B0100081B0100081B0100081B01000820
:100050001B0100081B010008810300081B010008A8
:100060001B010008F5030008350400081B01000807
:100070001B0100081B0100081B0100081B010008F0
:100080001B0100081B0100081B0100081B010008E0
:10009000055400081B0100081B0100087504000836
:1000A0001B010008793D00081B0100081B01000826
:1000B0003D3E0008513F00081B0100081B010008DD
:1000C0001B0100081B0100081B0100081B010008A0
:1000D0001B0100081B0100081B0100081B01000890
:1000E000A10300081B0100081B010008DFF80CD069
:1000F00000F02AF800480047AD560008D826002036
:100100000648804706480047FEE7FEE7FEE7FEE7B1
:10011000FEE7FEE7FEE7FEE7FEE7FEE7D53C000868
:10012000ED00000840EA01039B0703D009E008C97D
:10013000121F08C0042AFAD203E011F8013B00F8AC
:10014000013B521EF9D27047064C074D06E0E068AD
:1001500040F0010394E8070098471034AC42F6D30E
:10016000FFF7C8FF90850008B085000870B58C18AF
:1001700010F8015B15F0070301D110F8013B2A11BB
:1001800006D110F8012B03E010F8016B01F8016BA8
:100190005B1EF9D12B0705D40023521E0DD401F8A4
:1001A000013BFAE710F8013BCB1A921C03E013F86D
:1001B000015B01F8015B521EF9D5A142D8D30020A2
:1001C00070BD0000FEE7000000207047002070476F
:1001D00070B541F69030C2F20000D0F81842207895
:1001E0000F2800F2998041F68E30C2F20000012102
:1001F00041F2C446017004F1060C0021C2F200066F
:100200002378605C03EB83133344585420786218DE
:1002100000EB801053783044084443702078937882
:1002200000EB80103044084483702078D37800EBD2
:10023000801030440844C3702078137900EB80109C
:100240003044084403712078537900EB8010304427
:100250000844437123781CF8015003EB83133344A3
:100260000B449D7123780CEB010003EB8313407862
:1002700033440B44D8712078137A00EB801030445B
:10028000084403722078537A00EB8010304408440D
:1002900043722078937A00EB8010304408448372D4
:1002A0002078D37A00EB801030440844C372207861
:1002B000127B00EB8010304408440D314129027359
:1002C0009ED120780A2806D141F68A30C2F2000079
:1002D0000121017020780F280FD196F80F04002813
:1002E0003CD0012809D196F80C2440F2480006F5CC
:1002F0007471C2F2000005F04BFB20780B280DD082
:100300000E2818D00C281FD00D2805D141F68C30AE
:10031000C2F2000001210170002070BD41F68B3057
:10032000C2F200000121017096F8CC0205F000FB3A
:1003300020780E28E6D141F68830C2F20000012173
:10034000017020780C28DFD141F68930C2F200001C
:100350000121017020780D28DED1D7E796F80C2412
:1003600040F23C0006F57471C2F2000005F010FB8B
:1003700096F80F040128B6D0BFE7000070470000D0
:1003800010B542F21424C2F20004204602F068FDC7
:10039000204602F073FD0120BDE8104001F06CB969
:1003A00010B5172001F01CFB282001F019FB0920D3
:1003B00001F016FB0A2001F013FB03F037FB03F0FA
:1003C00067FB42F29424C2F20004204602F048FD8A
:1003D000204602F053FD4FF4806001F04DF94FF4D8
:1003E000805001F049F94FF40040BDE8104001F0A1
:1003F00043B9000010B5172001F0F2FA282001F0EF
:10040000EFFA092001F0ECFA0A2001F0E9FA03F012
:100410000DFB03F03DFB42F29424C2F2000420469F
:1004200002F01EFD204602F029FD0820BDE8104024
:1004300001F022B910B5172001F0D2FA282001F0FE
:10044000CFFA092001F0CCFA0A2001F0C9FA03F032
:10045000EDFA03F01DFB42F29424C2F200042046A0
:1004600002F0FEFC204602F009FD1020BDE810401D
:1004700001F002B910B540F60800C4F201000068AE
:10048000800509D442F21424C2F20004204602F08E
:10049000E7FC204602F0F2FC172001F0A1FA282028
:1004A00001F09EFA092001F09BFA0A2001F098FA67
:1004B00003F0BCFA03F0ECFA42F29424C2F2000416
:1004C000204602F0CDFC204602F0D8FC202001F0AE
:1004D000D3F8402001F0D0F84FF4807001F0CCF850
:1004E0004FF40070BDE8104001F0C6B810B50446E6
:1004F00002F0B6FC2046BDE8104002F0BFBC000090
:10050000F0B581B000EB4000C400E6B20027012046
:1005100031464FF4EC723346009700F00BFD601C3F
:10052000C4B2022021464FF4EC722346009700F03B
:1005300001FD06F11605012029464FF4EC722B4609
:10054000009700F0F7FC06F1170101204FF4EC7260
:100550000B46009700F0EEFC0020214600222B46BF
:10056000009700F0E7FC15360120214601223346B2
:10057000009700F0DFFC4FF4EC7021464FF4EC7272
:100580003346009700F0D6FC40F2D910214640F2E5
:10059000D9122B46009700F0CDFC01B0F0BD000051
:1005A00080B582B040F20000C2F2000000F11003FA
:1005B0000ECBC0690B4400EB020C4FF0000E88B26A
:1005C00091B29AB21FFA8CF3CDF800E000F0B2FCC1
:1005D00002B080BD2D2070476FF01F0041F67C31C6
:1005E0001F30C2F2000108804FF6E070CFF60740DE
:1005F000C1F802004FF4FC60C8807047F0B583B0CA
:100600000020002400F000FC4FF6FF70009038A09E
:10061000D22198220B23019400F04AFF41F68A363A
:10062000C2F20006307800285BD140F25A2440F62E
:100630005A358827C2F20004C2F200052046302154
:1006400030228C23009700F01FFD6E2000F0FEFF8B
:100650002846302130228C23009700F015FD6E20B3
:1006600000F0F4FF2046302130228C23009700F068
:10067000B1FE6E2000F0EAFF2846302130228C23A4
:10068000009700F0A7FE6E2000F0E0FF204630212A
:1006900030228C23009700F057FD6E2000F0D6FF2B
:1006A0002846302130228C23009700F04DFD6E202B
:1006B00000F0CCFF2046302130228C23009700F040
:1006C000F9FD6E2000F0C2FF2846302130228C2335
:1006D000009700F0EFFD6E2000F0B8FF30780028A2
:1006E000ACD0002003B0BDE8F04000F08DBB00BFEF
:1006F000C7C0C3D0D3C7CAC02E2E2E002DE9F041EB
:1007000082B000EB4000C400E5B248F2304801205E
:1007100029464FF4EC722B46CDF8008000F00AFC1D
:10072000601CC4B24FF6FF77022021464FF4EC72F2
:100730002346009700F0FEFB05F116060120314626
:100740004FF4EC723346009700F0F4FB05F117010B
:1007500001204FF4EC720B46CDF8008000F0EAFB6C
:100760000020214600223346CDF8008000F0E2FB55
:1007700015350120214601222B46009700F0DAFBB7
:100780004FF4EC7021464FF4EC722B46009700F0CA
:10079000D1FB40F2D910214640F2D9123346CDF8B0
:1007A000008000F0C7FB02B0BDE8F0812DE9F04FFA
:1007B00083B041F2C440C2F2000000F13F070426BA
:1007C00002254FF0000A0FF2643B4FF01708002497
:1007D00015E000BF04EB4400C10008EBC00083B289
:1007E00089B2002040F2D912CDF800A000F0A2FB9F
:1007F0000134183618350A2C07F141072AD017F8AA
:10080000010CC006E6D417F8020C1FFA85FC052877
:1008100098BF5BF820904846182114220323CDF896
:1008200000C000F0EFFB3988A7F13E000091B2B2A2
:100830001D212C23CDF804A000F03AFE17F8010C7E
:10084000000703D42046FFF75BFED1E72046FFF701
:1008500055FFCDE741F2C449C2F2000999F88C1264
:10086000ED224A43920841F27B435A4399F88B02A6
:10087000530C0425042B88BF550CC5F1ED0248F23A
:100880001F565043C5F2EB1641F67C38A0FB0620FC
:100890006429C2F2000809D100274FF4EE7002214A
:1008A0004FF4EF72EF23009717E000BF470945F6BA
:1008B000EB244FF4EE7002214FF4EF72EF2300941B
:1008C00000F038FBB81CB8F8064079198BB281B239
:1008D0004FF4EE704FF4EF72009400F02BFB40F2F7
:1008E0000005C2F2000599F88D72E868B8420BD98C
:1008F00045F6EB24042040F23B114FF4EE7240F237
:100900003D13009400F016FB4FF4EC707843A0FB0D
:1009100006010420B8F8066000EB5112042040F2F2
:100920003B1140F23D13009600F004FBB8F80200C2
:10093000EF600027009009F28E204FF49A714FF477
:1009400093721123019700F0B3FD698899F89F0213
:1009500081421DD099F8A71208F10402884208BF0D
:1009600008F1020211880138C0B208289ABF75A2A6
:1009700052F8200005F1200089B2002700913C21A7
:10098000FA220523019700F093FD99F89F026880F1
:10099000A98899F8A002814221D099F8A81208F1FB
:1009A0000402884208BF08F102021188102807D00B
:1009B000202807D0182814BF6EA06DA003E000BF48
:1009C00069A000E069A089B200270091AA21FA225B
:1009D0000223019700F06CFD99F8A002A880B8F8F6
:1009E00002000026009009F2A1204FF48C71FA2237
:1009F0000523019600F05CFDE98899F8A702814281
:100A000016D00138C0B209289ABF5BA151F8200066
:100A100005F12000B8F80210002700913C214FF4A6
:100A200088720523019700F043FD99F8A702E8803A
:100A3000B8F80200AA21009009F2A9204FF48872A8
:100A40000723019600F034FD298999F8A602814216
:100A500008D1698999F8B002814225D103B0BDE877
:100A6000F08F00BF0138C0B20C2807D845F6E82146
:100A7000C0F6000151F8200002E000BF05F1270098
:100A8000B8F80210002700914FF49B714FF4887260
:100A90001123019700F00CFD99F8A60228816989BD
:100AA00099F8B0028142D9D0B8F8021080075CBF33
:100AB00048F23041CFF6FF7188B20026009038A08E
:100AC0004FF4BE71FA220323019600F0F1FC99F86D
:100AD000B002B8F8021040075CBF48F23041CFF6D0
:100AE000FF7188B200902FA04FF4CD71FA2203233A
:100AF000019600F0DDFC99F8B002B8F8021000078A
:100B00005CBF48F23041CFF6FF7188B2009026A05A
:100B10004FF4DC71FA220423019600F0C9FC99F825
:100B2000B002688103B0BDE8F08F00BFFC6E000822
:100B3000BC720008FC7D00083C7A00087C76000846
:100B40003C6B0008741400208914002090140020CD
:100B50009E140020A5140020661400206D140020AF
:100B60007B14002082140020313600003332000054
:100B7000323400002030000074140020891400205A
:100B8000901400209E140020A5140020661400205C
:100B90006D1400207B140020821400209714002084
:100BA000CFD12E00D1CF2E00DDCAC22E0000000012
:100BB00010B582B00020002400F026F94FF6FF7037
:100BC000009004A0962198221223019400F070FC5A
:100BD00002B010BDC7C0C2C5D0D8C5CDC8C520D0D1
:100BE000C0C1CED2DB2E000070B582B040F2000052
:100BF000C2F200004FF0FF31C0F80210C0F806103A
:100C0000418148F230460520F2214FF4EB72F22385
:100C1000009600F08FF948F2BC10F826C0F60000EC
:100C200018211422FA23009600F0ECF941F67C36E4
:100C3000C2F2000630880025009028A00421FA2284
:100C40000423019500F034FC30880421009025A095
:100C50004FF488720523019500F02AFC30880421A6
:100C6000009022A04FF493720623019500F020FC1F
:100C7000708848F27C54C0F6000400902046782129
:100C8000FA220423019500F013FC7088782100906B
:100C900020464FF488720423019500F009FC708807
:100CA0004FF4AA71009013A0FA220323019500F0DB
:100CB000FFFB7088C82100900FA0FA220423019541
:100CC00000F0F6FB7088FA2100900DA04FF48872B6
:100CD0000523019500F0ECFB02B070BDD6C0CF3A01
:100CE00000000000D4E0E9EB3A000000C2F0E5ECBF
:100CF000FF3A0000C4E12E00C1E8F22E000000001F
:100D0000EAE12FF12E0000002DE9F04782B040F219
:100D10000007C2F200073D78814641F26440C2F20A
:100D200000008D4228BF0D460570904605EB8500FA
:100D30002821FA6940F2B71601EB400140F23F1357
:100D4000A6EB40009B1A86B203EBD37300EBD630C0
:100D50005C104610B96101EB600102EB63034FF0D8
:100D6000000AB0B28AB2A1B29BB2C7E90464CDF85E
:100D700000A000F0DFF8F969388A7A69103901EBD0
:100D8000D171143002EB51018AB281B248462B4630
:100D9000CDF804A0CDF8008000F08AFB3869BA696C
:100DA000B98A02444B1C4FF6FF7480B292B29BB2D8
:100DB000009400F0BFF8FA6907F110030BCB11445F
:100DC0004E1E1A1880B292B28BB2B1B2009400F0EB
:100DD000B1F8388A7969FA69431C561889B29AB20F
:100DE000B3B2009400F0A6F807F110030FCB0B4448
:100DF0001044471E89B282B29BB2B8B2009400F090
:100E000099F802B0BDE8F08770B5044641F21005CC
:100E100040F60C060020002140F2DF1240F23F13A2
:100E2000C4F20105C4F2010602F0FEFB200A4FF4F1
:100E300016314FF000524FF4005300BF14393060A8
:100E40002A602B6034602A602B6030602A602B603F
:100E500034602A602B6030602A602B6034602A6026
:100E60002B6030602A602B6034602A602B60306019
:100E70002A602B6034602A602B6030602A602B600F
:100E800034602A602B6030602A602B6034602A60F6
:100E90002B6030602A602B6034602A602B603060E9
:100EA0002A602B6034602A602B6030602A602B60DF
:100EB00034602A602B6030602A602B6034602A60C6
:100EC0002B6030602A602B6034602A602B603060B9
:100ED0002A602B6034602A602B6030602A602B60AF
:100EE00034602A602B6030602A602B6034602A6096
:100EF0002B6030602A602B6034602A602B60306089
:100F00002A602B6034602A602B6030602A602B607E
:100F100034602A602B6030602A602B6034602A6065
:100F20002B6030602A602B6034602A602B6085D192
:100F300070BD0000F0B581B01C4616460D46074650
:100F400002F072FBF01B471C38041EBF601B461CDE
:100F50005FEA064002D101B0F0BD00BFB6B2BFB239
:100F600006987E4341F2100140F60C02771E030AF8
:100F7000C4F20101C4F20102032F06F003071FD3DC
:100F800026F003064FF000554FF40054043E136062
:100F90000D600C6010600D600C6013600D600C60E3
:100FA00010600D600C6013600D600C6010600D60CF
:100FB0000C6013600D600C6010600D600C60E5D17A
:100FC000002FC8D04FF000554FF40056012F13608A
:100FD0000D600E6010600D600E60BCD0022F1360BB
:100FE0000D600E6010600D600E60B4D013604FF0A5
:100FF00000534FF400570B600F6010600B600F60E0
:1010000001B0F0BDF0B581B00E4606991746044612
:10101000F0180A441D460138531E82B29BB228467E
:1010200002F002FB06FB07F0410001292ADB41F236
:10103000100140F60C0204EB4000C4F20101C4F2BE
:1010400001024FF000534FF4005700BF14F8016B3A
:10105000844216600B600F6014D214F8016B844256
:1010600016600B600F600DD214F8016B844216609D
:101070000B600F6006D214F8016B844216600B609F
:101080000F60E3D301B0F0BDF0B583B00C46089912
:1010900017460546E0180A441E460138531E82B220
:1010A0009BB2304602F0C0FA07FB04F04FF0000C90
:1010B000ADF80600ADF80AC0BDF80A10BDF806206C
:1010C00091423FD241F2100140F60C02C4F20101FC
:1010D000C4F201024FF000534FF400570BE000BF81
:1010E000BDF80A002044ADF80A00BDF80A00BDF8BA
:1010F0000660B04226D2ADF808C0BDF80860A6422E
:10110000EED200BFBDF80A60BDF808002E44305C86
:1011100000F0F80646EA5016166000F01C06F600CD
:1011200046EAD0000B600F6010600B600F60BDF8E6
:1011300008000130ADF80800BDF80800A042E1D376
:10114000CEE700BF03B0F0BD2DE9F04381B0894682
:1011500008999046A9F101050A449C460446E818FE
:10116000531E41F2100740F60C0682B29BB2604655
:10117000C4F20107C4F2010602F056FA08FB09F0B6
:10118000A0EB0900ADF80200BDF8020000284DD028
:101190004FF000504FF40051ADF80050BDF8002062
:1011A00022BB00BFBDF80220BDF800302244D25C53
:1011B00002F0F80343EA5213336002F01C03DB0031
:1011C00043EAD20238603960326038603960BDF875
:1011D0000220A2EB0902ADF80220BDF802202AB3DA
:1011E000ADF80050BDF80020002ADBD0BDF8022089
:1011F000BDF800302244D25C02F0F80343EA5213F7
:10120000336002F01C03DB0043EAD202386039602D
:10121000326038603960BDF80020013AADF8002036
:10122000BDF80020002AE1D1BCE700BFADF80050B6
:10123000BDF8000010B34FF000504FF4005100BF54
:10124000BDF80220BDF800302244D25C02F0F80361
:1012500043EA5213336002F01C03DB0043EAD2027C
:1012600038603960326038603960BDF80020013A7A
:10127000ADF80020BDF80020002AE1D1BDF8020041
:10128000BDF800102044405C4FF4005200F0F8011B
:1012900000F01C0341EA5011DB0031604FF00051B7
:1012A00043EAD00039603A60306039603A6001B09A
:1012B000BDE8F0832DE9F04383B00C460A999046CF
:1012C000A4F101090A449C46054609EB0300531E9C
:1012D00041F2100740F60C0682B29BB26046C4F29F
:1012E0000107C4F2010602F09FF908FB04F0ADF813
:1012F0000600ADF80A90BDF80A00C8B34FF0000C24
:101300004FF000514FF4005208E000BFBDF80A0052
:101310000138ADF80A00BDF80A0048B3ADF808C0BE
:10132000BDF80830BDF806008342EFD2BDF80A00D0
:10133000BDF808302844C05C00F0F80343EA5013BD
:10134000336000F01C03DB0043EAD00039603A60F0
:10135000306039603A60BDF808002044ADF80800FC
:10136000BDF80800BDF806309842DFD3CEE700BFD5
:101370000020ADF80800BDF80800BDF8061088424E
:1013800024D24FF000504FF4005100BFBDF80A20A6
:10139000BDF808302A44D25C02F0F80343EA521345
:1013A000336002F01C03DB0043EAD202386039608C
:1013B000326038603960BDF808202244ADF808205A
:1013C000BDF80820BDF806309A42DFD303B0BDE86F
:1013D000F0830000F0B581B00C460699174605462B
:1013E000E0180A441E460138531E82B29BB23046B2
:1013F00002F01AF90020ADF80200BDF80200A04288
:1014000054D207FB04F041F2100140F60C02A0EBAD
:10141000040CC4F20101C4F201024FF000534FF476
:1014200000571DE0BDF80200BDF800602844805D53
:1014300000F0F80646EA5016166000F01C06F600AA
:1014400046EAD0000B600F6010600B600F60BDF8C3
:1014500002000130ADF80200BDF80200A04225D222
:10146000ADF800C0BDF80060002EDBD0BDF8026012
:10147000BDF800002E44305C00F0F80646EA501635
:10148000166000F01C06F60046EAD0000B600F6004
:1014900010600B600F60BDF80000001BADF800008D
:1014A000BDF800000028E1D1BCE700BF01B0F0BDED
:1014B0002DE9F04782B0B3B10D46DDE90A9803EBA0
:1014C000830192464F00461E002400BF16F8010F0C
:1014D000611989B252464B46CDF8008000F006F8FB
:1014E0000A34BC42F2D302B0BDE8F0872DE9F04FD8
:1014F00081B09A4694468046C81D02F10F03DDF87C
:10150000289041F2100640F60C0B82B29BB20846BE
:101510006146C4F20106C4F2010B02F085F845F6FB
:101520003C32C0F6000202EB08124FEA1A204FEAE2
:101530001921A2F1010E4FF0000C4FF000574FF4AB
:10154000005300BF1EF8012F554612F00104044657
:1015500004BF0C464D46CBF8004012F00204376041
:101560003360CBF80050044655463760336004BF03
:101570000C464D46CBF8004012F00404376033604F
:10158000CBF80050044655463760336004BF0C4624
:101590004D46CBF8004012F0080437603360CBF8BA
:1015A0000050044655463760336004BF0C464D4634
:1015B000CBF8004012F0100437603360CBF80050D5
:1015C000044655463760336004BF0C464D46CBF8A1
:1015D000004012F0200437603360CBF8005004461E
:1015E00055463760336004BF0C464D46CBF800408B
:1015F00012F0400437603360CBF800500446554683
:101600003760336004BF0C464D4612F08002CBF8C1
:1016100000400246544637603360CBF800503760D4
:10162000336004BF0A464C46BCF10F0F0CF1010CAD
:10163000CBF8002037603360CBF800403760336070
:10164000FFF480AF01B0BDE8F08F0000B0B50446F4
:1016500000F02AF9054640F28400C2F2000000784A
:10166000611C18BF044400BF00F01EF9401BA042DB
:10167000FAD3B0BD7047000040F21441C4F201013A
:101680000A68024214BF08607047FFF7F3BF00000A
:101690002DE9F04F82B040F20C4C41F200424FF67F
:1016A000FF7EC4F2010CC4F20102042700240123CE
:1016B000C1F2100E4FF0000A4FF00009904208BF2F
:1016C0000327009742E000BF012504F00C030F2719
:1016D0009F402BEA070705FA03F33B4342F8263005
:1016E000D1F804B040F20045C4F201055FEACB3204
:1016F0002A6854BF22EA080242EA08022A606A689D
:101700005FEA8B3354BF22EA080242EA08026A60A9
:101710005FEACB23AA6854BF22EA080242EA080221
:101720005FEA8B23AA60DCF800204FF0010354BF6E
:1017300022EA080242EA0802CCF800200AF1010A73
:10174000BAF1100F04F1040400F0A4800A6803FA4F
:101750000AF812EA080FF1D04A68724512DC122A20
:1017600056D8DFE802F0350B4549555555555555C6
:10177000555555555555554D510000BFD1F80C9054
:1017800046E000BF4FF6FF77C1F22107BA420FDCF7
:101790000027C1F21107BA421AD00027C1F212077E
:1017A000BA4215D00027C1F22107BA4210D02FE06B
:1017B0000027C1F22207BA420AD00027C1F231073E
:1017C000BA4205D00027C1F23207BA4220D100BF89
:1017D0008A684AB1012A14BFC0F81480C0F810808A
:1017E0004FF0080914E000BF4FF0040910E000BFFB
:1017F000CA6802F108090BE04FF0000908E000BFD9
:10180000CA6802F1040903E0CA6802F10C0900BFCA
:1018100022460546BAF1080F24BF203A04352E6847
:101820000F279740BE4309FA02F232432A60CA7971
:10183000D2067FF583AF41F21803C4F202031A689F
:101840004FEA9A0642F001021A601A6840F6000355
:1018500002F001020192019A40F20042C4F2010238
:10186000A2F57E7252F826B0C4F2010398420FD05E
:1018700040F60043C4F2010398423FF425AF41F221
:101880000003C4F20103009D984208BF02251CE733
:1018900000251AE702B0BDE8F08F0000002A08BF5B
:1018A000090401617047000042F2D420C2F2000036
:1018B0000068704740F2840042F2D421C2F2000076
:1018C000C2F2000100780A68104408607047000006
:1018D00080B542F20000C4F20200016841F010013C
:1018E0000160032000F0C4F8002000F005F800F0CB
:1018F00027F8002080BD000070B540F28406C2F2D7
:10190000000640F2C4013278C2F200014FF47A734B
:101910000968B3FBF2F20446B1FBF2F1084601F0AC
:10192000ABF90F2C4FF0010508D838B94FF0FF3054
:1019300021460022002500F06FF87460284670BD33
:1019400080B582B041F21800C4F20200016841F093
:1019500001010160016801F00101019101994168F3
:1019600041F080514160406800F080500090009844
:10197000032000F07DF86FF00B000021002200F042
:101980004BF86FF00A000021002200F045F86FF0DC
:1019900009000021002200F03FF86FF00400002150
:1019A000002200F039F86FF003000021002200F05F
:1019B00033F86FF001000021002200F02DF84FF005
:1019C000FF300021002200F027F80420C4F20100BB
:1019D0000168022262F31A61016002B080BD00005A
:1019E00000F01F01012202FA01F14EF280124009BB
:1019F000CEF2000242F820107047000000F01F01F4
:101A0000012202FA01F14EF200124009CEF2000268
:101A100042F820107047000010B54EF60C5CCEF274
:101A2000000CDCF80030C3F3022E8EF00704042C07
:101A300028BF0424BEF103034FF0FF3E0EFA04F466
:101A400038BF0023A14399400EFA03F39A43114390
:101A500000F1604200F00F03090102F56442043B0B
:101A60006344002848BF03F10C02117010BD000050
:101A70004EF60C51CEF200010A684FF6FF031A40F1
:101A800060F30A2242F0806040F0FD700860704709
:101A900001F07F0C00EB4C1C0CF1280C00EB41100A
:101AA000090658BF00F50A7C0020002A19BFCCF8AF
:101AB00006300121ACF8043000218CF80A10704780
:101AC00070470000D0F85C3400EB4110C26B184640
:101AD00002F036BDD0F85C3400EB4110D0F83C2267
:101AE000184602F087BD0000B0B5054601F07F0042
:101AF00005EB40130A4603F12801140658BF03F50D
:101B00000A71087095F82804D20901284A7004BFA8
:101B10000220B0BD2868012285F8282403F032FA9B
:101B2000002085F82804B0BDB0B5054601F07F005F
:101B30000A4605EB4011283105EB4213140658BF45
:101B400003F50A71087095F828040024D2090128C9
:101B50008C704A7004BF0220B0BD2868012285F84D
:101B6000282403F0A5FA204685F82844B0BD0000DB
:101B7000F0B581B0074601F07F0007EB40150C4639
:101B800005F12801260658BF05F50A710870E0091D
:101B9000487097F828040A610128CB7002D102200E
:101BA00001B0F0BD3868012287F8282403F0BEF8A0
:101BB000002087F8280401B0F0BD000010B501F046
:101BC0007F0C00EB4C1E00680EF50A710024CEF865
:101BD0003C22CEF84032CEF844428EF829428EF8AC
:101BE00028C203F0C9FA002010BD0000B0B501F012
:101BF0007F050A46044600EB451000F1280104EB7E
:101C00004210130658BF00F50A7194F82804012306
:101C1000D20901288B700D704A7004BF0220B0BD3C
:101C2000206884F8283403F079FA1DB1002084F884
:101C30002804B0BD206804F22C4103F037FA0020DC
:101C400084F82804B0BD000080B501F07F0C00EBE3
:101C50004C1101F828CF01F1140E00684FF0000C70
:101C60008EE80C1001224A7003F086FA002080BD35
:101C70002DE9F04F83B00446006803F0C9FB00046F
:101C800002D420680EE000BF0027ADF80A70ADF85E
:101C900008702068B0F94410B1F1FF3FADF80A10A8
:101CA00040F3988003F0B4FB400519D52068B0F8E4
:101CB000441021F48061A0F84410204600F03CFC60
:101CC00094F8280401280BD00120002584F828046A
:101CD00084F824502068002103F0E4FB84F82854A1
:101CE000206803F095FB01462068490405D5B0F84B
:101CF000441021F48041A0F8441003F089FB014610
:101D00002068890405D5B0F8441021F40051A0F8EA
:101D1000441003F07DFB01462068C90415D5B0F8D6
:101D2000401021F00401A0F84010B0F8401021F05C
:101D30000801A0F84010204600F00CFC2068B0F824
:101D4000441021F48051A0F8441003F061FB000519
:101D500019D52068B0F8401041F00801A0F84010F3
:101D6000B0F8441021F40061A0F84410B0F840101D
:101D700041F00401A0F8401003F04AFBC00402D473
:101D8000204600F025FC206803F042FB800507D4C4
:101D9000206803F03DFBC00511D403B0BDE8F08F0F
:101DA0002068B0F8441021F40071A0F844102046D7
:101DB00000F0D4FB206803F02BFBC005EDD52068B4
:101DC000B0F8441021F48071A0F8441003B0BDE8CD
:101DD000F08F00BF04F22C4148F60F79019115E015
:101DE00001F07F0604EB461101F8286FC1E90532C6
:101DF0000122CF614A7003F0BFF900BF2068B0F93B
:101E000044100029ADF80A107FF54CAFBDF80A1058
:101E100011F00F0810D030F828104FEA480BADF839
:101E20000810BDF90810B1F1FF3F33DDBDF808001F
:101E30000006E3D52CE100BFBDF80A200188D206D8
:101E400052D401EA09010180B0F8501094F828201A
:101E500001EBC20100EB4100D0F80404E16B6FF329
:101E60009F2060640844E06320460021FFF72AFEBB
:101E700094F824000028C1D0206C0028BED194F82A
:101E80002400216840F08000C0B2A1F84C0084F822
:101E90002470B3E730F81B1040F68F72114020F821
:101EA0001B1004EB481999F8321209F50A7A002937
:101EB00000F080809AF8001030F82120B0F85030FF
:101EC000520403EBC10100EB410100F18B80D1F81A
:101ED0000C646FF39F26002E00F09280D9F83C121C
:101EE000B9F8302287E000BFADF80810BDF808103F
:101EF000090541D4BDF90810B1F1FF3F3FF77EAFAE
:101F0000018840F68F7211400180B0F8501094F8AB
:101F1000282201EBC20100EB4101D1F80C346FF330
:101F20009F23C4F8443263B1D4F83C12B4F82C2295
:101F300003F072FAD4F83C02D4F844120844C4F80E
:101F40003C0220460021FFF7C5FD2068B0F8501084
:101F5000D4F838223F2AC0F001814FF4F8465301EB
:101F600006EA4216D20608BF06F5F84303F4F84223
:101F700002F50042F8E000BFB0F8501094F82822B3
:101F800001EBC20100EB4101D1F80C34B4F82C2272
:101F900001996FF39F23C4F8443203F03DFA20689F
:101FA00040F68F72018811400180204600F0EEFA61
:101FB00024E700BFB0F850109AF8002001EBC201EE
:101FC00000EB4101D1F80C646FF39F26002E00F066
:101FD000C380D9F83C12B9F82C22334603F01CFA1E
:101FE0001CE000BFD1F804646FF39F2646B1D9F816
:101FF0003C12B9F82E22334603F00EFA01E000BF7E
:10200000002620689AF8001040F60F7330F821205F
:102010001A4048F2C0031A4320F82120D9F844227C
:10202000D9E98F103244C9F844228A19C9F83C22F0
:1020300018B1D9F83812B1420ED99AF800102046DA
:10204000FFF748FD48F60F790027BDF808000006A5
:102050007FF5D4AE1CE000BF9AF80010002701F015
:102060007F0304EB4316C6E98F20206806F50A714A
:10207000C6F8447286F8297286F8283203F07CF894
:1020800048F60F79BDF8080000067FF5B7AE00BF2F
:10209000206804EB481630F81B1006F1280501EA09
:1020A000090120F81B1096F8321099B1297830F800
:1020B0002120B0F85030520603EBC10100EB410182
:1020C0001CD4D1F80C346FF39F23736403B3F16B0A
:1020D000328E1BE0B0F85020297802EBC10200EBF1
:1020E0004202D2F804346FF39F237364F3B1F16BAF
:1020F000B28D03F0DFF92068297817E0D1F80434B5
:102100006FF39F2373641BB1F16BF28D03F0D2F96F
:102110002068297840F60F7330F821201A4048F2E1
:10212000C00303F57F531A4320F82120B0F8502054
:1021300002EBC10200EB4202D2F80434D6E90F529E
:102140006FF39F2373642B44002AF3637FF448AE3C
:102150002046FFF7B7FC51E600265FE702F00103D7
:1021600003EB5202920292B200F20C4343F81120A8
:10217000018843F60F72114048F2C00202F53F5247
:10218000514001803AE600002DE9F04385B0002877
:1021900000F0A881044690F8290428B9002084F8AA
:1021A0002804204600F0A4F94FF0030884F829849D
:1021B000206802F071FF94E8EF508DE8E05002F0E3
:1021C000DFFE20680021002503F06AF94FF48070DB
:1021D000208540F20110A4F848004FF48170A4F863
:1021E00068004FF48270A4F8A80040F20510A4F82B
:1021F000C80040F20710A4F808014FF48470A4F856
:1022000028010220A4F8740084F86802A4F874007D
:102210000420A4F8B40084F8A802A4F8B4000520AF
:10222000A4F8D40084F8C802A4F8D400062084F8E6
:10223000E800A4F8F40084F8E802A4F8F400072009
:10224000A4F8140184F80803A4F814010820A4F8E1
:10225000340184F82803A4F83401092084F84801E3
:10226000A4F8540184F84803A4F854010A2084F81F
:102270006801A4F8740184F86803A4F874010B20C1
:1022800084F88801A4F8940184F88803A4F89401E0
:102290000C2084F8A801A4F8B40184F8A803A4F8D9
:1022A000B4010D2084F8C801A4F8D40184F8C8034F
:1022B000A4F8D4010E2004F1140E84F8E801A4F867
:1022C000F40184F8E803A4F8F40194E88F009EE890
:1022D0004050D4F8209084F88880A4F8948084F842
:1022E0008882A4F894804FF00108A58684F82B50CA
:1022F000C4E90E552564A4F8548084F84B50C4E911
:102300001655256684F86B50C4E91E55C4F88050F4
:1023100084F8898084F88B50C4E92655C4F8A0500D
:1023200084F8AB50C4E92E55C4F8C05084F8CB50A3
:10233000C4E93655C4F8E05084F8E98084F8EB50DD
:10234000C4E93E55C4F8005184F80B51C4E9465520
:10235000C4F8205184F82B51C4E94E55C4F84051BB
:1023600084F8498184F84B51C4E95655C4F860514A
:1023700084F8698184F86B51C4E95E55C4F88051D2
:1023800084F8898184F88B51C4E96655C4F8A0515A
:1023900084F8A98184F8AB51C4E96E55C4F8C051E2
:1023A00084F8C98184F8CB51C4E97655C4F8E0516A
:1023B00084F8E98184F8EB51C4E97E55C4F80052F1
:1023C00084F8295284F82852A58684F82B52C4E94F
:1023D0008E55C4F8405284F8495284F84882A4F8D3
:1023E000548084F84B52C4E99655C4F8605284F87E
:1023F000695284F86B52C4E99E55C4F8805284F83F
:10240000895284F88B52C4E9A655C4F8A05284F8C6
:10241000A95284F8AB52C4E9AE55C4F8C05284F84E
:10242000C95284F8CB52C4E9B655C4F8E05284F8D6
:10243000E95284F8EB52C4E9BE55C4F8005384F85D
:10244000095384F80B53C4E9C655C4F8205384F8E3
:10245000295384F82B53C4E9CE55C4F8405384F86B
:10246000495384F84B53C4E9D655C4F8605384F8F3
:10247000695384F86B53C4E9DE55C4F8805384F87B
:10248000895384F88B53C4E9E655C4F8A05384F803
:10249000A95384F8AB53C4E9EE55C4F8C05384F88B
:1024A000C95384F8CB53C4E9F655C4F8E05384F813
:1024B000E95384F8EB53C4E9FE55C4F80054CDE960
:1024C0000076CDE902CECDF8109002F0D1FD84F86F
:1024D000245084F82984206802F0C8FD284605B0FD
:1024E000BDE8F0830125284605B0BDE8F083000073
:1024F00080B582B0006845F60041C4F20001884210
:102500001CBF02B080BD41F21C00C4F20200016891
:10251000002241F4000101600068002100F4000085
:10252000019001981420FFF777FA142002B0BDE85B
:102530008040FFF763BA000010B50446D0F85C0491
:10254000012102F03FF9D4F85C04BDE8104002F02C
:1025500003B90000D0F85C0402F01EB9D0F85C04A6
:1025600002F022B910B5044690F82804012804BFEF
:10257000022010BD012084F8280484F8241020686B
:1025800002F090FF002084F8280410BDD0F85C24ED
:1025900000F22C41104602F02BB9000010B50446A1
:1025A00090F82804012804BF022010BD012084F8FF
:1025B000280420460121FFF783FA206802F054FD29
:1025C000206802F015FF002084F8280410BD0000E8
:1025D00010B50446D0F85C0402F060F9A069002848
:1025E00008BF10BD4EF61050CEF20000016841F059
:1025F0000601016010BD00002DE9F04182B00446E3
:10260000007841F21C06C007C4F202064AD03068C6
:1026100010F0805808D1306840F080503060306849
:1026200000F080500190019847F20007C4F20007C3
:102630003868C00512D4386840F480703860FFF7FD
:1026400033F905463868C00508D4FFF72DF9401B5B
:102650006428F7D9032002B0BDE8F081706810F457
:10266000407012D0616801F4407188420DD07068EA
:1026700040F24042C4F24222012320F44071136030
:102680000023C007136071602AD17068616820F46C
:1026900040700843B8F1000F706003D1306820F03B
:1026A000805030602068810707D556F8181CA26852
:1026B00021F44041114346F8181CC00604D4002000
:1026C00002B0BDE8F08100BF56F8180CE16820F4B4
:1026D0008000084346F8180C002002B0BDE8F081E5
:1026E000FFF7E2F8054641F2883700BF70688007BF
:1026F000CBD4FFF7D9F8401BB8424FF00300F5D90F
:10270000EBE700002DE9F04381B042F20008C4F28B
:102710000208D8F800200D4602F00701A94204463D
:102720000CD2D8F8000020F007002843C8F80000B9
:10273000D8F8000000F00700A84254D1206841F208
:1027400004078107C4F2020705D53968A26821F0A1
:10275000F00111433960C0073CD1D8F8000000F007
:102760000700A8420CD9D8F8000020F00700284341
:10277000C8F80000D8F8000000F00700A84232D1E5
:102780002068410705D53968E26821F4E06111430A
:102790003960000706D53868216920F4605040EAA6
:1027A000C10038603A6802F00C00082841F20020AD
:1027B000C0F27A0067D145F62C33C2F38341C0F6EC
:1027C0000003595CD20353D440F60010C0F23D0020
:1027D000484358E0606802280AD0012842D157F8DF
:1027E000041C890308D40124204601B0BDE8F0830D
:1027F00057F8041C8901F6D5396821F00301084314
:102800003860FFF751F861680646012941F28839BE
:102810000ED0022921D100BF386800F00C00082832
:102820009BD0FFF741F8801B4845F5D90BE000BF6E
:10283000386800F00C0004283FF48FAFFFF734F83D
:10284000801B4845F4D90324204601B0BDE8F0833D
:10285000FFF72AF8801B4845F5D8386810F00C0FB0
:10286000F6D17AE757F8041C8907BCD5C4E700BF46
:102870003A6845F6E623C2F34042C0F600039A5C8C
:102880004843B0FBF2F0396845F61C32C1F303113E
:10289000C0F60002515C0024C84040F2C401C2F2FC
:1028A000000108600020FFF727F8204601B0BDE8CE
:1028B000F083000040F2C400C2F2000000687047DC
:1028C0002DE9F04182B00446007841F20006C007CD
:1028D000C4F2020625D0706800F00C0004281BD05A
:1028E000706800F00C00082802D17068C00313D48F
:1028F0006068002800F05881B0F5A02F00F06C81CE
:10290000B0F5803F00F06C81306820F4803030609A
:10291000306820F4802066E13068800301D560686B
:1029200058B32078800718D5706810F00C0F07D0C6
:10293000706800F00C00082860D17068C0035DD496
:102940003068800702D52069012816D13068616996
:1029500020F0F80040EAC10030602078000711D470
:102960002078400724D4E569002D00F07381706859
:1029700000F00C00082840F07F80012002B0BDE884
:10298000F08100BFA069002862D00020C4F242207C
:102990000121C0F88014FEF787FF0546706A8007A2
:1029A00000F18C80FEF780FF401B0228F6D928E159
:1029B000F06910F0805808D1F06940F08050F06163
:1029C000F06900F080500090009847F20007C4F2D0
:1029D00000073868C00529D4386840F48070386032
:1029E000FEF762FF054600BF3868C0051ED4FEF73B
:1029F0005BFF401B6428F7D903E100BF2069002872
:102A000040F20000C4F2422000F082800121016007
:102A1000FEF74AFF054600BF3068800796D4FEF7F0
:102A200043FF401B0228F7D9EBE000BFE068002815
:102A300000F07E80052800F09580012800F0968047
:102A4000306A20F001003062306A20F0040090E02B
:102A50000020C4F242200021C0F88014FEF724FFB9
:102A6000054600BF706A80077FF57AAFFEF71CFF4E
:102A7000401B0228F6D9C4E00027C4F242270020F8
:102A80003866FEF711FF022D05460BD13068800134
:102A900040F1BC80FEF708FF401B02284FF0030006
:102AA000F4D9D3E03068800140F1D480FEF7FCFE19
:102AB000401B03284FF00300F4D3C7E040F2C400EA
:102AC000C2F20000006844F6D351C1F26201A0FBDB
:102AD0000101480A019000BF00BF0198411E002873
:102AE00001913FF43DAF00BF0198411E00280191C4
:102AF0003FF436AF00BF0198411E002801913FF41A
:102B00002FAF00BF0198411E00280191E4D127E7B3
:102B100000210160FEF7C8FE054600BF306880074F
:102B20007FF51BAFFEF7C0FE401B0228F6D968E018
:102B3000306A20F001003062306A20F00400306218
:102B4000FEF7B2FE054641F2883700BF306A8007C3
:102B500020D5FEF7A9FE401BB8424FF00300F5D97F
:102B600074E000BF306A40F004003062306A40F028
:102B700001003062FEF798FE054641F2883700BF3B
:102B8000306A800706D4FEF78FFE401BB842F7D9A3
:102B900037E000BFB8F1000F7FF4E5AEF06920F038
:102BA0008050F061DFE600BF306820F48030306094
:102BB000306820F480203060FEF776FE054600BFC6
:102BC000306880037FF5ADAEFEF76EFE401B6428D3
:102BD0004FF00300F4D939E0306840F480203060D1
:102BE000306840F480303060FEF75EFE054600BF7E
:102BF000306880033FF595AEFEF756FE401B642813
:102C0000F6D9032002B0BDE8F08100BF206AB0F51C
:102C1000803F05D17168A26821F4003111437160D1
:102C20007168626A21F474111043084370600120D6
:102C30003866FEF739FE0446306880010AD4FEF794
:102C400033FE001B02284FF00300F5D902B0BDE8A7
:102C5000F08100BF002002B0BDE8F0814EF210010B
:102C6000CEF200010A68042822F0040208BF0432F0
:102C70000A60704770470000411E0020B0EB116FE2
:102C80001CBF012070474EF21002CEF200025160CC
:102C90004EF62351CEF20001F0230B700721906015
:102CA00011607047FFF7E6BF7047000070470000F3
:102CB00090F83C20012A4FF002021AD080F83D2003
:102CC0000268536823F070035360D2F804C0D1E95E
:102CD000003143EA0C035360936823F08003936050
:102CE0009368194391600121002280F83D1080F81B
:102CF0003C20104670470000002804BF01207047A8
:102D000010B5044690F83D0028B9002084F83C0036
:102D1000204600F055F8022084F83D00206840F27B
:102D2000FF730268C4F2000342F6004C9842C4F2FA
:102D3000010C15DCB0F1804F1AD040F20041C4F212
:102D40000001884214D0984218DCB0F1804F1DD0A9
:102D500040F20041C4F20001884217D01AE000BFDF
:102D6000604505D040F60001C4F200018842EAD176
:102D7000A16822F070020A439842E6DD604505D062
:102D800040F60001C4F20001884203D1216922F417
:102D900040720A43A36922F08001D4F804E0E2689B
:102DA000194360450160C262C0F828E002D1616940
:102DB000CCF8301001214161002084F83D1010BD95
:102DC00010B584B00068B0F1804F1FD040F20041D0
:102DD000C4F20001884229D042F60041C4F2010148
:102DE00088421CBF04B010BD41F21C00C4F20200B6
:102DF00050F8041C192441F4006140F8041C50F8F8
:102E0000040C00F40060039003981DE041F21C00E4
:102E1000C4F2020001681C2441F001010160006855
:102E200000F00100029002980EE000BF41F21C0089
:102E3000C4F2020001681D2441F002010160006833
:102E400000F0020001900198204600210022FEF7C8
:102E5000E3FD204604B0BDE81040FEF7CFBD000002
:102E60000146022081F83D000868026842F0010234
:102E700002600122002081F83D2070470168C86887
:102E800040F00100C860086840F0010200200A60BC
:102E9000704700000146022081F83D00086841F2B9
:102EA0001113026A1A4205D00122002081F83D2048
:102EB000704700BF026A40F244431A42F4D10268EC
:102EC00022F0010202600122002081F83D207047BB
:102ED000006841F21112C16821F00101C160016A6C
:102EE000114201D000207047016A40F24442114271
:102EF000F8D1016821F00101016000207047000055
:102F000080B590F83C20012A4FF0020200F0E180E9
:102F100080F83D20D0F800C04FF67772DCF808301A
:102F200023EA0202CCF808200B684F2B28DC1F2B69
:102F300036DD202B66D0302B6CD0402B40F0C38088
:102F4000D1F804E0C968DCF82030DCF8202022F059
:102F50000102CCF82020DCF8182022F0F00242EA2E
:102F6000011123F00A0242EA0E02CCF81810CCF844
:102F70002020DCF8081041F0470121F03001A0E0EA
:102F80006F2B19DD702B4DD0B3F5005F5ED0B3F51C
:102F9000805F40F09880DCF8081021F0070190E095
:102FA000002B67D0102B40F08E80DCF8081041F029
:102FB000170121F0600184E0502B63D0602B40F0BA
:102FC0008280D1F804E0C968DCF8203023F01003D7
:102FD000CCF82030DCF81830DCF8202023F47043E3
:102FE00022F0A00243EA013142EA0E12CCF8181096
:102FF000CCF82020DCF8081041F0670121F0100126
:103000005FE000BFDCF8081041F0270121F050011B
:1030100057E000BFDCF8081041F0370121F0400113
:103020004FE000BFD1E901E3C968DCF8082043EABA
:103030000E0322F47F4243EA01211143CCF8081029
:10304000DCF8081041F077013BE000BFD1E901E373
:10305000C968DCF8082043EA0E0322F47F4243EA01
:1030600001211143CCF80810DCF8081041F480412C
:1030700027E000BFDCF8081041F0070121F07001E3
:103080001FE000BFD1F804E0C968DCF82030DCF8AC
:10309000202022F00102CCF82020DCF8182022F0B9
:1030A000F00242EA011123F00A0242EA0E02CCF8D1
:1030B0001810CCF82020DCF8081041F0570121F05E
:1030C0002001CCF808100121002280F83D1080F882
:1030D0003C20104680BD00007047000010B501681C
:1030E00004460869800744BFC8685FEA807039D425
:1030F0000869400744BFC8685FEA40703ED4086969
:10310000000744BFC8685FEA007045D40869C0067C
:1031100044BFC8685FEAC0604AD40869C0071CBFE2
:10312000C8685FEAC07051D10869000644BFC8682A
:103130005FEA006052D40869400644BFC8685FEA8D
:10314000406053D40869800646BFC8685FEA806063
:1031500010BD6FF0200220460A61BDE81040FFF765
:10316000A5BD00BF6FF002000861012020778869CB
:10317000800743D02046FFF7AFFF45E06FF0040023
:10318000086102202077886910F4407F40D02046F3
:10319000FFF7A2FF42E000BF6FF0080008610420C3
:1031A0002077C86980073DD02046FFF795FF3FE0B4
:1031B0006FF01000086108202077C86910F4407F84
:1031C0003AD02046FFF788FF3CE000BF6FF00100D7
:1031D0000861204600F03EF82168A5E76FF0800006
:1031E00008612046FFF760FD2168A4E76FF040000A
:1031F0000861204600F030F82168A3E7204600F07F
:1032000025F8204600F024F82168002020776FE799
:10321000204600F01BF8204600F01AF82168002034
:1032200020776CE7204600F011F8204600F010F8F7
:1032300021680020207769E7204600F007F8204643
:1032400000F006F821680020207766E7704700004C
:10325000704700007047000070470000FEE7000064
:103260002DE9F04F81B04FF6004641F21004CFF641
:10327000FF76C4F201044FF0040A4FF400554FF4F6
:10328000006044F806A02560A0514FF400484FF4B8
:103290008040C4F8008020600520FEF7D7F94FF485
:1032A0008020A0510F204FF00F0BFEF7CFF90F2019
:1032B00044F806A0FEF7CAF94FF0804040F60C062D
:1032C00020604FF00049C4F20106F920C4F80090D4
:1032D00030604FF000570020082127602560C4F8B7
:1032E00000803060276025603160C0212760256044
:1032F000C4F800903160192127602560C4F800806F
:1033000031604FF01A0EC12127602560C6F800E039
:1033100027602560C4F80090316045212760256052
:10332000C4F800803160C2212760256030602760CA
:103330002560C4F800903160332127602560C4F80F
:1033400000803160C52127602560C4F8009031609D
:10335000282127602560C4F8008030602760256040
:103360003160B12127602560C4F800903160902160
:1033700027602560C4F80080316011212760256036
:103380003160B42127602560C4F8009031600221CB
:10339000B62227602560C4F8008031602760256070
:1033A000C4F800903260422227602560C4F8008093
:1033B00030602760256032603B22276025603260E4
:1033C000B72227602560C4F800903260072227608A
:1033D0002560C4F800803260E02227602560C4F8D0
:1033E000009032601F224FF0250C222327602560B9
:1033F000C4F80080326027602560C6F800C02760EE
:10340000256033600B232760256033600623276027
:10341000256033600A232760256033604E232760D0
:1034200025603360C6232760256033603923276019
:1034300025603360E12327602560306027602560C8
:10344000306027602560306027602560306027602D
:103450002560306027602560306027602560C4F8F3
:10346000009033603F2327602560C4F800803260FD
:103470002760256033602760256033602760256002
:10348000C6F800B0276025603260462227602560BC
:10349000C6F800B0276025603260492227602560A9
:1034A0003260312227602560326005222760256066
:1034B0003260092227602560326003222760256080
:1034C00032601C22276025603260F122276025606F
:1034D000C6F800E027602560306027602560C4F8EA
:1034E0000090326036233C2227602560C4F80080BB
:1034F000336027602560C6F800A027602560306033
:10350000276025603260A42227602560C6F800B0DD
:1035100027602560C6F800B0276025603260F2227F
:1035200027602560316027602560C4F80090326014
:10353000182227602560C4F800803260A32227602B
:103540002560326012222760256032602760256086
:10355000316032212760256031602760256032604C
:10356000FF22276025603260276025603160F421EA
:1035700027602560306027602560C4F800903160C6
:10358000402127602560C4F80080316027602560F5
:10359000306008202760256030609120276025601A
:1035A0003060F82027602560C6F800A027602560FD
:1035B000C4F800903060212027602560C4F80080A6
:1035C0003060A82027602560C6F800A0276025602D
:1035D000C4F80090336027602560C4F80080306034
:1035E0003A2027602560C4F800903060552027609D
:1035F0002560C4F800803060112027602560C4F881
:1036000000903060782027602560C4F80080FEF7C5
:103610001DF82920C4F80090306027602560C4F8A8
:10362000008001B0BDE8F08F2DE9F04141F2100CAF
:1036300040F60C04C4F2010C4FF0004EC4F2010439
:103640002A25CCF800E025604FF000554FF40056D5
:103650004FF40048070ACCF80050CCF80060CCF8D2
:1036600000802760CCF80050CCF800602060100A81
:10367000CCF80050CCF8006020602B20CCF8005033
:10368000CCF800602260CCF80050CCF80060CCF898
:1036900000E02060080ACCF80050CCF80060CCF8BC
:1036A00000802060180ACCF80050CCF8006021603F
:1036B000CCF80050CCF8006020602C20CCF80050F2
:1036C000CCF800602360CCF80050CCF80060CCF857
:1036D00000E02060CCF80050CCF80060CCF800800E
:1036E000BDE8F0812DE9F04F85B041F21800C4F239
:1036F0000200016840F6004941F0100101600168D4
:10370000C4F2010901F0100101910199016809F564
:10371000806741F0200101600168002201F0200172
:103720000191019901684FF4604441F00401016086
:1037300001684FF0000801F004010191019901684E
:1037400041F00801016000684FF4604100F008009A
:10375000019001983846FEF7A1F8A9F58065284642
:10376000FF2100224FF0FF0AFEF798F848464EF678
:1037700084710022FEF792F801AE019401244FF00B
:10378000030B38463146CDE90248CDF810B0FDF7BD
:103790007FFF28463146CDE901A4CDE9038BFDF733
:1037A00077FF41F2790000270190C1F221074846D6
:1037B0003146CDE90274FDF76BFF0220CDE9010827
:1037C000484631460394FDF763FF4EF6847001A925
:1037D00081E8110948463146FDF75AFF4FF407408A
:1037E000CDE90107284631460394FDF751FF062035
:1037F00000210022FEF710F90620FEF7FFF809204D
:1038000000210022FEF708F90920FEF7F7F80A2048
:1038100000210022FEF700F90A20FEF7EFF817203A
:1038200000210022FEF7F8F81720FEF7E7F828201D
:1038300000210022FEF7F0F82820FEF7DFF805B09F
:10384000BDE8F08F80B586B042F2142042F6004108
:10385000C2F20000C4F2010100234FF434724FF0B1
:10386000C80C80E80E10C0E904338361FFF744FA06
:1038700030B148F28150C0F600004C2101F060FEEA
:103880004FF48050029042F21420C2F2000002A9CC
:10389000FFF736FB30B148F28150C0F600005221EC
:1038A00001F04EFE202000900020019042F21420F2
:1038B000C2F200006946FFF7FBF930B148F28150CF
:1038C000C0F60000592101F03BFE06B080BD0000AB
:1038D00080B586B042F25420C2F200004FF0804121
:1038E00000234FF4E15242F2107C80E80E10036195
:1038F0008361FFF701FA30B148F28150C0F6000051
:103900006B2101F01DFE4FF48050029042F25420D2
:10391000C2F2000002A9FFF7F3FA30B148F2815079
:10392000C0F60000712101F00BFE20200090002065
:10393000019042F25420C2F200006946FFF7B8F944
:1039400030B148F28150C0F60000782101F0F8FD56
:1039500006B080BD80B586B042F2942040F20041AE
:10396000C2F20000C4F2000100234FF4347246F2A8
:10397000A81C4FF4807E80E80E508361FFF7BCF9ED
:1039800030B148F28150C0F600008A2101F0D8FD24
:103990004FF48050029042F29420C2F2000002A93B
:1039A000FFF7AEFA30B148F28150C0F60000902126
:1039B00001F0C6FD202000900020019042F29420EA
:1039C000C2F200006946FFF773F930B148F2815046
:1039D000C0F60000972101F0B3FD06B080BD0000E5
:1039E00010B541F69034C2F2000440F2A801C2F2D0
:1039F00000012046002200F067FD40F2C801C2F23B
:103A00000001204600F072FF40F24811C2F20001AE
:103A1000204600F07DFB2046BDE8104000F07CBF52
:103A2000FEE70000704700007047000041F25C4074
:103A300040F60841C2F20000C4F2010100680A68C1
:103A400052060A6858BF20F0100092064FF6004256
:103A5000CFF6FF728B5858BF20F02000DB050B68B3
:103A600058BF20F04000DB040B6858BF20F08000F6
:103A7000DB060B6858BF20F4007089581B0758BF3D
:103A800020F48070090458BF20F480607047000063
:103A900041F25C41C2F200010968814208BF7047EF
:103AA00041F6D8010346C2F200010020087041F639
:103AB0009030C2F200004122C1F8013000F030BB6A
:103AC00041F25C40C2F20000006841F6783120F01B
:103AD0000803C2F2000198420B6008BF704741F62C
:103AE000D801C2F200010020087041F69030C2F205
:103AF00000004122C1F8013000F012BB41F25C40ED
:103B0000C2F20000006841F6783120F00403C2F2EE
:103B1000000198420B6008BF704741F6D801C2F21D
:103B200000010020087041F69030C2F200004122EE
:103B3000C1F8013000F0F4BA41F25C40C2F200007A
:103B4000006841F6783120F00203C2F20001984289
:103B50000B6008BF704741F6D801C2F20001002097
:103B6000087041F69030C2F200004122C1F80130E5
:103B700000F0D6BA41F25C40C2F20000006841F6A3
:103B8000783120F00103C2F2000198420B6008BFB7
:103B9000704741F6D801C2F200010020087041F6DA
:103BA0009030C2F200004122C1F8013000F0B8BAF2
:103BB0007047000080B5FDF77DFEBDE88040FFF74F
:103BC00071B80000B0B594B001200A900E904FF487
:103BD000E0104FF480310024022513900AA80B91C5
:103BE0000C94CDE91151FEF76BFEB8B140F60044DC
:103BF000C4F2010420464FF400410122FDF74EFEBD
:103C00003C20FDF723FD20464FF400410022FDF744
:103C100045FE3C20FDF71AFDECE700BF0F20CDE983
:103C200005054FF48060CDE9080405A8022107943A
:103C3000FEF768FDC0B140F60044C4F2010400BFC5
:103C400020464FF400410122FDF728FE3C20FDF7FD
:103C5000FDFC20464FF400410022FDF71FFE3C20F2
:103C6000FDF7F4FCECE700BF102001900020049069
:103C700001A8FEF7C1FCB8B140F60044C4F201044B
:103C800020464FF400410122FDF708FE3C20FDF7DD
:103C9000DDFC20464FF400410022FDF7FFFD3C20F3
:103CA000FDF7D4FCECE700BFFEF704FE44F6D35169
:103CB000C1F26201A0FB01018809FEF7DDFF0420CB
:103CC000FEF7CCFF4FF0FF3000210022FDF7A4FEED
:103CD00014B0B0BD41F20000C4F20200016800223D
:103CE00041F0010101604168CFF6FF0211404160DF
:103CF00001684FF6FF72CFF6F6621140016001686D
:103D000021F480210160416821F4FE0141604FF4FB
:103D10001F0181604EF60850CEF200004FF00061A6
:103D20000160704740F274020128C2F200020BD019
:103D3000022815D0042803D10A29C8BF02215160E6
:103D400011680843106070473229C8BF0521002957
:103D500048BF0521D160116808431060704700BF5B
:103D60003229C8BF0521002948BF0521916011688B
:103D70000843106070470000B0B540F25400C2F232
:103D80000000103001F026FC41F6D4050228C2F2F2
:103D9000000513D0012823D141F26544C2F200048A
:103DA0002078002818BFFFF7E5FE2078B0B907207B
:103DB00001F0E6FBFFF7A2FE10E000BF41F2654410
:103DC000C2F200042078002818BFFFF7B5FE207863
:103DD00020B9072001F0D4FBFFF772FE0020286015
:103DE00040F25400C2F2000001F0F4FB022805D0BA
:103DF000012807D1FFF782FE012015E0FFF760FEE2
:103E0000012011E0286840F6B8310130884228606E
:103E10000BD142F21424C2F200042046FFF73AF814
:103E20002046FFF755F80020286042F21420C2F225
:103E30000000BDE8B040FFF751B9000010B540F2F6
:103E40007404C2F200042068800706D540F27C00AA
:103E5000C2F2000001F08CFB00B32068400730D5AF
:103E600040F27800C2F2000001F082FB48BB41F250
:103E7000C440C2F2000090F8890301F095FB0020D5
:103E800001F07EFD41F68A30C2F20000012101708E
:103E9000206820F00400206013E000BF052001F03E
:103EA0008DFB40F60040C4F201004FF400510022A7
:103EB000FDF7F4FC206820F0020020602068400735
:103EC000CED42068000706D541F26040C2F200005F
:103ED00001F04EFB40B142F25420C2F20000BDE8B6
:103EE0001040FFF7FBB800BF01F056FB41F68E30E3
:103EF000C2F20000017809B1002114E041F2C4448B
:103F0000C2F2000404F24E300BA11622FCF70AF9AB
:103F100040F21630CFF6FF70C4F8880341F68C30BB
:103F2000C2F200000121017042F25420C2F20000EE
:103F3000BDE81040FFF7D2B8CDE5F220E4E0EDEDAA
:103F4000FBF520EEF22041433833202121210000EF
:103F500010B541F68430C2F20000016851B1013958
:103F6000016042F29420C2F20000BDE81040FFF769
:103F7000B5B800BFFFF75AFD411C0DD0FFF788FD13
:103F8000072001F0FDFA42F29420C2F20000BDE8E1
:103F90001040FFF7A3B800BF42F29424C2F200041D
:103FA0002046FEF777FF2046FEF792FF40F21440CE
:103FB000C4F201004FF400714FF4806240230160AD
:103FC00002600360202303604FF480734FF4805439
:103FD0000360046010240460082404604FF400446B
:103FE00004604EF28020CEF200004FF40004046022
:103FF0004360016002601720FDF700FD2820FDF7F7
:10400000FDFC0920FDF7FAFC0A20FDF7F7FC42F25F
:104010009420C2F20000BDE81040FFF75FB8000036
:10402000D0F818120022002081F8542070470000B8
:10403000B0B50446D0F81C02D4F81852C2682878EB
:1040400069789047204601212A46412300F072FBFF
:104050000020B0BD10B58121044600F05FFA204673
:10406000012100F05BFAD4F8180250B1D4F81C0218
:1040700080688047D4F8180200F050FE0020C4F891
:104080001802002010BD000010B5D0F81842216DB4
:10409000012907D1D0F81C026178C26820789047C6
:1040A00000202065002010BD014640F204102922A6
:1040B000C2F200000A807047014640F23C100A221A
:1040C000C2F200000A80704770B5812103224023AC
:1040D000044600F01BFB204601210322402301255A
:1040E00000F014FB582000F01BFEC4F8180268B161
:1040F0000646D4F81C020025406886F854508047D4
:10410000204601213246412300F014FB284670BDB1
:1041100000290EBF0220C0F81C12002070470000CA
:1041200080B590F8FC31032B06D194460A46D0F8AE
:10413000181291F854300BB1002080BD012381F892
:1041400054308121634600F0B3FB002080BD0000A5
:1041500080B50A78D0F818C212F0600214D0202A74
:104160002DD14A78023A092A3CD8DFE802F005331B
:104170003B3B3B3B3B3F494F0CF14801012200F0E8
:104180009BF8002080BD00BF4A780B2A14D00A2A71
:1041900018D0062A13D1CA78212A3DD0222A47D125
:1041A000CA88D0F81C121C2A096828BF1C2200F0FB
:1041B00083F8002080BD00BF8878CCF84C00002038
:1041C00080BD00BF0CF14C01012200F075F8002009
:1041D00080BD00BF0CF14401012200F06DF8002009
:1041E00080BD00BF00F042F8022080BD8A79012323
:1041F0006146CCF8503000F045F8002080BD00BF8B
:10420000C878CCF84800002080BD00BF8878CCF882
:104210004400002080BD00BFCA8840F23011C2F2C5
:104220000001092A28BF092200F046F8002080BDBD
:104230000022002100F040F8002080BD80B5D0F8B9
:10424000142252689047002080BD000080B51346BC
:104250000A46002100F06EFA002080BD80B51346AA
:104260000A46002100F024FB002080BD10B580210B
:10427000044600F0EFFA20460021BDE8104000F0AF
:10428000E9BA000080B513460A460321C0F8F411CC
:104290000021C0E9423300F04DFA002080BD00004B
:1042A00080B50521C0F8F41100210022002300F0A0
:1042B00041FA002080BD000080B513460A46022165
:1042C000C0F8F4110021C0E9063300F0F1FA002033
:1042D00080BD000080B50421C0F8F4110021002247
:1042E000002300F0E5FA002080BD000010B541F683
:1042F0001C14C2F200040A4602A0214600F076F81F
:10430000204610BD437573746F6D204849442043A7
:104310006F6E66696700000040F258101222C2F208
:1043200000000A807047000010B541F61C14C2F26C
:1043300000040A4602A0214600F058F8204610BDAD
:10434000437573746F6D2048494420496E746572DB
:10435000666163650000000040F26C100422C2F246
:1043600000000A807047000010B541F61C14C2F22C
:1043700000040A4602A0214600F038F8204610BD8D
:104380005365726769795F383320285338332900C1
:1043900010B541F61C14C2F200040A4602A02146E0
:1043A00000F024F8204610BD533833204375737451
:1043B0006F6D2048756D616E20696E7465726661FF
:1043C0006365000010B541F61C14C2F200040A46F1
:1043D00002A0214600F00AF8204610BD30303030EF
:1043E00030303030303031410000000010B500284E
:1043F00068D00378B3B100F1020E4FF0000C00BF9B
:104400001EF8013C93B19EF800309BB19EF801303C
:10441000A3B19EF802300CF1040C002B0EF1040E37
:10442000EED10DE04FF0000C0AE000BF4CF0010CA3
:1044300006E000BF4CF0020C02E000BF4CF0030CA1
:104440005FFA8CFC022303EB4C03138003220B70F6
:104450004A7090F800E0BEF1000F33D00230022223
:104460004FF0000C1AE000BF141DE4B244F0010E3E
:104470000B5501F80EC04378002B08BF10BD941DEA
:10448000E4B244F0010E0B5501F80EC090F802E0C2
:104490000832BEF1000F00F1040013D0D3B243F094
:1044A000010401F803E001F804C010F8013C4BB12D
:1044B000941CE4B244F0010E0B5501F80EC00378D1
:1044C000002BD1D110BD0000002804BF022070478E
:1044D00080B5D0F81432002B1CBF0023C0F8143272
:1044E000002918BFC0F81012012180F8FC110270D9
:1044F00000F0B6F8002080BD80B5D0F82002FDF7AE
:1045000013FB40F200220223C100C0F20122042862
:1045100038BF22FA01F3D8B280BD000080B5D0F8D0
:104520002002FDF7E1FA40F200220223C100C0F2AE
:104530000122042838BF22FA01F3D8B280BD00005E
:10454000B0B5044661B1D4F814024269002A4ED0D5
:1045500094F8FC0103284AD12046904747E000BF69
:10456000D4F8F401022827D1D4E90710814209D9EF
:10457000081A83B2E061204611461A46FFF76EFE24
:1045800014E000BFA169814220D3B1FBF0F202FB2D
:104590001010D8B9D4F8F801814217D22046002172
:1045A00000220025FFF75AFEC4F8F85120460021EA
:1045B0000022002300F0BEF894F80002012816D172
:1045C000002084F800020020B0BD00BFD4F814021F
:1045D000C16829B194F8FC01032801D1204688471D
:1045E0002046FFF75DFE94F800020128E8D0002085
:1045F000B0BD000010B5044661B1D4F81402826960
:104600002AB194F8FC01032801D1204690470020EC
:1046100010BD00BFD4F8F4010328F8D1D4E9431049
:1046200081420DD9091AC4F80C11814238BF0846DD
:1046300083B2204611461A46FFF708FE002010BD3F
:10464000D4F81402016929B194F8FC01032801D1BE
:10465000204688472046FFF73DFE002010BD0000A1
:1046600010B5044641F6B45045F6004CC2F20000C5
:10467000C4F2000C082202230021C0F85C44C4F8F4
:104680002002C0E900C2C0E90231C0E9061101629E
:10469000FDF77AFD20B111A04FF4977100F050FFA3
:1046A000D4F82002002100221823FDF7F1F9D4F8F4
:1046B0002002802100225823FDF7EAF9D4F82002D5
:1046C000812100229823FDF7E3F9D4F8200201218B
:1046D0000022D823FDF7DCF9002010BD2E2E2F5329
:1046E00072632F757362645F636F6E662E63000082
:1046F000D0F8200201F07F0200EB421000F12A0204
:10470000090658BF00F22A221078704780B59446F7
:10471000D0F820021A466346FDF72AFA40F200223A
:104720000223C100C0F20122042838BF22FA01F39B
:10473000D8B280BD80B5D0F82002FDF73FFA40F234
:1047400000220223C100C0F20122042838BF22FA4D
:1047500001F3D8B280BD0000B0B500210022402393
:1047600004464025FFF7D2FF204680210022402347
:10477000C4F81051FFF7CAFFD4F8180201212562CE
:1047800084F8FC1128B1D4F814022179426820463B
:1047900090470020B0BD000090F8FD2101460020A8
:1047A00081F8FC217047000080B590F8FC110329C6
:1047B00005D1D0F81412C969002918BF8847002014
:1047C00080BD0000024600201174704780B5D0F80B
:1047D0002002FDF7C7FE40F200220223C100C0F212
:1047E0000122042838BF22FA01F3D8B280BD0000AC
:1047F000B0B500F502750446284600F06BF894F851
:1048000008020121B4F80E22C4F8F41100F01F01CF
:104810000229C4F8F82109D001290DD091B9204608
:10482000294600F07FF80020B0BD00BF2046294691
:1048300000F0C4F90020B0BD2046294600F040FA3F
:104840000020B0BD00F08001204600F003F80020F9
:10485000B0BD000080B5D0F82002FDF7C7F940F2E6
:1048600000220223C100C0F20122042838BF22FA2C
:1048700001F3D8B280BD000080B5D0F82002FDF76A
:104880008DFE40F200220223C100C0F20122042862
:1048900038BF22FA01F3D8B280BD0000014690F87B
:1048A000FC01042281F8FD01002081F8FC21704701
:1048B00080B5D0F82002FDF7C7F940F200220223AC
:1048C000C100C0F20122042838BF22FA01F3D8B295
:1048D00080BD00000A7802704A7842704A8842809F
:1048E0008A888280C988C1807047000000290EBF75
:1048F0000220C0F8141200207047000080B5D0F8E4
:1049000014223AB112689047002818BF01204000D5
:1049100080BD00BF022080BD80B5FFF7ADFF002045
:1049200080BD0000B0B582B00D4649780446092923
:1049300000F2F480DFE811F00A002000F2003000FD
:10494000F20044009400F2006600760094F8FC0146
:1049500000F0FE00022840F0E180D4F804020322B7
:10496000002808BF0122214641F80C2F20460222D0
:10497000FFF7A2FC02E100BF94F8FC0100F0FE008A
:10498000022840F0CB806888012840F0F780D4F8F6
:104990001402002107E000BF6888012840F0EE8083
:1049A000D4F8140201218268C4F804122046294672
:1049B00090472046FFF78EFC002002B0B0BD00BF3C
:1049C000A888002840F0AA80E888002840F0A68047
:1049D00094F8FC01032800F0A180A87800F07F057E
:1049E0002046294684F8FE51FFF7F0FE2046FFF7E7
:1049F00071FC002D0CBF0120022084F8FC01002076
:104A000002B0B0BDE888012840F0888094F8FC012D
:104A1000032841D0022840F081800020214641F83F
:104A2000080F3AE0688841F61915C1B2C2F20005D4
:104A30000229287080F0728094F8FC01032833D09A
:104A4000022840F06B800029B3D0032084F8FC01D9
:104A500020466160FFF752FF0228AAD15EE000BF46
:104A600068884FF0FF3101EB1021062956D8DFE8A6
:104A700001F0053B2F555549530000BFD4F81002F3
:104A80000268207C0DF1060190470146BDF8060042
:104A9000002865D172E000BF211D20460122FFF7EA
:104AA0000BFC002002B0B0BD002943D06068012893
:104AB0003FF47FAFC1B22046FFF7C0FB2978204604
:104AC0006160FFF71BFF02287FF473AF26E000BF91
:104AD000C1B2052956D8DFE801F0035D6165696D53
:104AE000D4F810024268CCE7217CD4F814020029E3
:104AF0000CBF816AC16A0DF1060088470146022099
:104B00002AE000BF207C48B9D4F81402416B0DF1B3
:104B100006008847B9E700BF207CA8B12046802165
:104B2000FFF798FE20460021FFF794FE002002B018
:104B3000B0BD00BF022084F8FC0100206060204668
:104B4000FFF77CFB35E700BFD4F81402016B0DF1D1
:104B500006008847014607204870BDF8060068B186
:104B6000EA885AB1904238BF02462046ADF8062086
:104B7000FFF7A2FB002002B0B0BD00BF002002B0D2
:104B8000B0BD00BFD4F814020DF10602836B2046BD
:104B900098477AE7D4F81002826872E7D4F81002D6
:104BA000C2686EE7D4F8100202696AE7D4F810020E
:104BB000426966E7D4F81002826962E7B0B50D4633
:104BC0000978044601F06001202907D1D4F81402C5
:104BD00029468268204690470020B0BD6878297930
:104BE000D0B1012828D0032858D194F8FC0103281B
:104BF00026D1688828B911F07F0002D02046FFF73F
:104C000029FED4F81402294682682046904720469F
:104C1000FFF760FB0020B0BD94F8FC01032823D00F
:104C200002280FD020468021FFF714FE20460021E5
:104C3000FFF710FE32E000BF94F8FC0103282BD0F0
:104C4000022807D1480629D02046FFF703FE00209E
:104C5000B0BD00BF20468021FFF7FCFD20460021AB
:104C6000FFF7F8FD0020B0BD01F07F0004EB00105D
:104C700000F114050A0658BF00F582752046FFF7BB
:104C800037FD002818BF012028602046294602224F
:104C9000FFF712FB0020B0BD688808B10020B0BD4E
:104CA0004806B4D02046FFF727FCD4F81402294662
:104CB0008268204690472046FFF70CFB0020B0BDDD
:104CC000B0B5044690F8FC0103280FD188880D4642
:104CD00010F0FE0F14D020468021FFF7BBFD2046C8
:104CE0000021FFF7B7FD0020B0BD00BF20468021A6
:104CF000FFF7B0FD20460021FFF7ACFD0020B0BD5E
:104D0000D4F814022946826820469047E888002893
:104D1000F4D12046FFF7DEFA0020B0BD7047000056
:104D200041F61C30C2F2000070470000B0B5CA78EE
:104D3000032A0FD8DFE802F002121E280B7848F68B
:104D40008F1430F823C04FEA430E04EA0C0404F534
:104D5000007424E00B784FEA430E22E00B7848F60B
:104D60008F1430F823C04FEA430E04EA0C0404F514
:104D7000806414E00B7848F68F1430F823C04FEAB3
:104D8000430E04EA0C040AE00B7848F68F1430F85E
:104D900023C04FEA430E04EA0C0404F5C06420F873
:104DA000234030F81E4040F60F72224048F2800443
:104DB0001A43CFF6FF74224320F81E208A7A48F265
:104DC000800C002A00EB4E024AD0158840F60F6492
:104DD00025400CF5807425431580CD88B0F85040EF
:104DE00025F0010504EBC30400EB4404C4F80054AF
:104DF0000D89B0F8504025F0010504EBC30300EB2A
:104E00004300C0F8085448781188002801F4804015
:104E10004AD038B1108840F60F7108400CF5804137
:104E2000084310801088400607D5108840F60F719F
:104E300008400CF1400108431080108840F60F71C3
:104E400008400CF5804108431080108840F63F71FF
:104E5000084040EA0C001080108843F60F714AE0C9
:104E60008C884D7824F0010EB0F85040002D04EBF2
:104E7000C30447D000EB4400C0F800E410884006AB
:104E800007D5108840F60F7108400CF14001084327
:104E90001080108840F63F7108400CF1200141401D
:104EA00000201180B0BD00BF38B1108840F60F71EE
:104EB00008400CF58041084310801088400607D553
:104EC000108840F60F7108400CF140010843108033
:104ED000108840F60F7108400CF140010843108023
:104EE000108843F60F7108400CF54051484010807F
:104EF000108840F63F71084040EA0C010020118004
:104F0000B0BD00BFDD0000EB4403C3F808E4B0F817
:104F100050400B6929193F2B00F20C4012D34FF47B
:104F2000F8445D0104EA4314DB0608BF04F5F845C4
:104F300005F4F84303F5004340F8113010884004AD
:104F400013D50AE003F0010505EB53039B029BB266
:104F500040F811301088400407D5108840F60F71D2
:104F600008400CF5804108431080108843F60F710B
:104F700008400CF54051414000201180B0BD0000B8
:104F800000207047B0B50C784B78897A024630F82B
:104F900024004CF2800C4CF2800500294FEA4401B9
:104FA0003AD0002B00F4804040D040B132F81100DC
:104FB00040F60F73184040EA0C0022F8110032F856
:104FC000110043F60F7E400640F63F7009D532F8D7
:104FD000113040F60F742340ACF57F54234322F880
:104FE000113032F8113040F60F7423402B43ACF5EA
:104FF000804522F8113032F811301840284322F849
:10500000110032F81100ACF5804300EA0E000343B2
:10501000002022F81130B0BDF3B1400640F63F7ECB
:10502000EFD5ACF57F5540F60F70E4E740B132F8AC
:10503000110040F60F73184040EA0C0022F81100EE
:1050400032F81100ACF57F55400640F63F7E43F63E
:105050000F70BCD4C5E700BF400443F60F7ED0D527
:1050600040F60F70C7E7000000207047002070472F
:1050700001460120A1F840000020A1F84000A1F85D
:105080004400A1F85000B1F8400040F43F42002035
:10509000A1F84020704700000146B0F8400044F2FB
:1050A000FF2202400020A1F84020704700207047F6
:1050B00010B502460878497832F8203000294FEAC6
:1050C00040010DD05B0648F2B00E40F63F731CD590
:1050D00048F2B000CFF6FF7000F1100C0CE000BFFA
:1050E0004BF2800E580443F60F730ED54BF280003E
:1050F000CFF6FF7000F5805C32F8110040F60F74B7
:10510000204040EA0C0022F8110032F8110018404B
:1051100080EA0E03002022F8113010BD0A788AB10F
:10512000497830F8223048F2900C00294FEA4201C9
:1051300018D040F63F721A4082EA0C0220F8112083
:1051400000207047018843F63F73194048F29003EE
:10515000CFF6FF7303F58053594020F8221000204A
:10516000704700BF43F60F721A400CF57F635A4038
:1051700020F81120002070472DE9F0418D690F695A
:105180004A788B7AEE1B38BF002688BF3D46012A3D
:105190008E6135D1D3B30F7830F82720B0F8506046
:1051A0007B0006EBC70700EB47072E04C7F8045443
:1051B00000F0DA8052064FF0080258BF06228A5AE1
:1051C000D1F814C000EB420101F5806EA9B20131A3
:1051D0004FF0FF32C1F3410402EB5102002C4FEAC1
:1051E000510100F0AE80654635F8027B7646012C11
:1051F00026F8047B6CD10139B646AC46A1E000BF6D
:1052000043B3002A40D009787EE000BF2A0400F0B2
:10521000D7808A88D1F814C000EB420202F5806E74
:10522000AAB2531C4FF0FF3202EB5308C3F3410202
:10523000002A4FEA530300F0B080664636F8024B6E
:105240007746012A27F8044B66D1013BBE46B44697
:10525000A3E000BFB0F8502009783F2D02EBC10257
:1052600000F20C432AD36F014FF4F84606EA4516C4
:10527000ED0608BF06F5F84707F4F84707F50047BD
:1052800043F8127040E000BFB0F8502009783F2D7D
:105290004FEAC10C02EBC10400F2044224D36B01BB
:1052A0004FF4F84707EA4517EE0608BF07F5F8433D
:1052B00003F4F84303F500431CE000BF05F00107C9
:1052C00007EB5507BF02BFB243F812701CE000BFE6
:1052D000BCF80250022CAEF8045029D10EF1080E91
:1052E0000CF1040C02392CE005F0010303EB55032B
:1052F0009B029BB242F81430B0F85020624400EB9D
:10530000420202F20C4213604BF2800200EB810178
:1053100043F60F7064E000BFBCF80240022AAEF80A
:10532000044031D10EF1080E0CF1040C023B34E0C4
:10533000BCF804400CF1060CAEF808400EF10C0E5F
:105340000339032A10D3AEF11002ACF1080500BFF7
:1053500035F8087F043922F8107F6F889780AF886E
:105360001781EF889781F3D130F8131040F60F7250
:1053700011404BF28002CFF6FF72114301F58051CC
:1053800020F8131026E000BFBCF804200CF1060C36
:10539000AEF808200EF10C0E033BB8F1030F0FD34B
:1053A000AEF11004ACF1080232F8087F043B24F897
:1053B000107F5788A78097882781D788A781F3D146
:1053C000B0F85020097802EBC10200EB4202C2F8AB
:1053D00004544B0000EB430148F2B00240F63F702A
:1053E0000B881840424000200A80BDE8F081000090
:1053F0000146B0F8400040F43F420020A1F84020B0
:105400007047000041F6B450C2F20000FCF730BC17
:10541000B0F8440070470000B0B5002B3ED000EB60
:10542000420000F58062581C4FF0FF3303EB500C34
:10543000C0F341034FEA500053B196465EF8045B57
:105440000C46012B24F8025B04D10138214611E0FF
:1054500096460FE05568022B4D8005D102F1080EEB
:105460000431023806E000BF936802F10C0E8B8015
:1054700006310338BCF1030F38BFB0BDAEF11002E6
:10548000083900BF52F8103F043821F8083FD2E92C
:105490000135D4684B808D80CC80F3D1B0BD000045
:1054A00000207047002904BF8021A0F84C10002084
:1054B00070470000B0B5002B3ED000EB420000F575
:1054C000806E581C4FF0FF32C0F3410302EB500CCA
:1054D0004FEA5000EBB10A4632F8025B7446012BEA
:1054E00024F8045B04D10138A646114611E000BF40
:1054F0004A88022BAEF8042004D10EF1080E0431C4
:10550000023806E08A880631AEF808200EF10C0E4B
:105510000338BCF1030F38BFB0BDAEF1100208393B
:1055200031F8083F043822F8103F4B8893808B886D
:105530001381CB889381F3D1B0BD0000FEE700005A
:1055400040F60044C4F2010420464FF40041012219
:10555000FCF7A4F93C20FCF779F820464FF4004111
:105560000022FCF79BF93C20FCF770F8ECE7000008
:10557000016811B1016801390160006870470000DD
:1055800040F274013228C8BF0520C2F20001002891
:1055900048BF0520C860704741F26040C2F2000079
:1055A000042101607047000040F27401C2F2000162
:1055B0000A28C8BF022048607047000040F274010A
:1055C0003228C8BF0520C2F20001002848BF0520CC
:1055D0008860704780B501460068D1F80CC0D0F8EB
:1055E00008E08A884FF0FF331EEA020F8068CA88FD
:1055F00008BF6FF00103104208BF23F00203D81C5C
:10560000B0FA80F040094200981CC1F808C008BFF9
:105610000122B3F1FF3018BF10461CF1010218BF80
:105620000020CB6080BD000080B582B041F2B84060
:10563000C2F20000002141700078AB214843410ACA
:105640001F221F2938BF420A92FAA2F0C00E8030F2
:105650008DF8070041F2AC40C2F200000DF10701E5
:10566000012200F095F902B080BD000080B582B043
:1056700041F2B840C2F20000012141700078AB2134
:105680004843410A1F221F2938BF420A92FAA2F05A
:10569000C00E8DF8070041F2AC40C2F200000DF1DF
:1056A0000701012200F074F902B080BD84B040F619
:1056B0000044C4F20104FCF70BF9FEF783FAFEF78D
:1056C00011F8FEF78DF9FEF7BDF8FEF701F9FEF7C8
:1056D00041F9FFF7A9FF40F23C05C2F2000501AE17
:1056E0000027284631460A22ADF80C70CDE9017733
:1056F00000F04EF905F10C0031460A2200F048F99D
:10570000642000F015F9FDF7ABFDFFF7AFFFFAF7E6
:1057100063FFFAF773FFFBF767FA42F25420C2F215
:105720000000FAF7E3FE41F6883641F6893841F683
:105730008C3941F2C44A41F2BC4B41F6D805C2F261
:105740000006C2F20008C2F20009C2F2000AC2F268
:10575000000BC2F200050FE0022000F011F99AF8E8
:105760008813BAF88A230AF24E30FBF7CDFA9AF87A
:1057700089130420FEF7D6FA41F68A30C2F20000FF
:105780000078002857D041F68A30C2F20000077036
:105790009AF8B002C0070DD1DBF8000001280BD049
:1057A000DBF8000001280ED0DBF80000002842D111
:1057B00012E000BF012000E0002000F0E1F8DBF87B
:1057C00000000128F0D1FBF7F3F902200521FEF7D4
:1057D000A9FADBF8000070BB41F2C040C2F2000041
:1057E000006801280DD1002000F0CAF80020FBF766
:1057F0000BFBFBF7F9F920464FF400510122FCF7AF
:105800004DF841F2C040C2F200000068022804D105
:10581000FAF7C6FE002000F0B3F820464FF400412E
:105820000122FCF73BF8FAF7C1FF20464FF4004194
:105830000022FCF733F841F68D30C2F20000007808
:1058400041F68B30C2F200000078307830B341F27C
:10585000016037702880FAF7BDFEA87047F241500A
:10586000C2F26700C5F8030043F22070C3F22020A3
:10587000C5F8070043F23020C0F23300C5F80B0032
:1058800041F69030C2F2000029464122FEF748FC62
:1058900020464FF400510122FCF700F898F8000070
:1058A00098B188F80070DAF80D03DAF8111341F6B0
:1058B0007C32C2F2000210605160FBF795F920467D
:1058C0004FF400510122FBF7E9FF99F8000000288E
:1058D0003FF452AF89F800709AF88903FFF764FE2D
:1058E000DBF8000020B1DBF8000002287FF444AFB1
:1058F000DBF8000002287FF42FAFFAF751FE41F2E7
:105900006440C2F2000000789AF8881388427FF65B
:1059100023AF20464FF400410122FBF7BFFFFAF707
:1059200045FF20464FF400410022FBF7B7FF13E785
:1059300080B582B041F2B841642828BF6420C2F229
:105940000001AB2208705043420A1F231F2A38BFB0
:10595000430A93FAA3F04978C00E00298DF8070096
:1059600004BF80308DF8070041F2AC40C2F2000065
:105970000DF10701012200F00BF802B080BD00001C
:1059800041F2BC41C2F200010A684A6008607047F7
:10599000F0B581B004461546628900680E4611468E
:1059A0000022FBF77BFF002D00F08680013E00BF48
:1059B00016F8017F2068E188FA09FBF76FFF20687D
:1059C000A1880022FBF76AFF2068A1880122FBF76B
:1059D00065FF2068E188C7F38012FBF75FFF20684E
:1059E000A1880022FBF75AFF2068A1880122FBF75B
:1059F00055FF2068E188C7F34012FBF74FFF20688E
:105A0000A1880022FBF74AFF2068A1880122FBF74A
:105A100045FF2068E188C7F30012FBF73FFF2068CD
:105A2000A1880022FBF73AFF2068A1880122FBF73A
:105A300035FF2068E188C7F3C002FBF72FFF20681D
:105A4000A1880022FBF72AFF2068A1880122FBF72A
:105A500025FF2068E188C7F38002FBF71FFF20685D
:105A6000A1880022FBF71AFF2068A1880122FBF71A
:105A700015FF2068E188C7F34002FBF70FFF20689D
:105A8000A1880022FBF70AFF2068A1880122FBF70A
:105A900005FF2068E18807F00102FBF7FFFE2068A0
:105AA000A1880022FBF7FAFE2068A1880122FBF7FB
:105AB000F5FE013D7FF47CAF20686189012201B0D1
:105AC000BDE8F040FBF7EABE02E008C8121F08C1BB
:105AD000002AFAD170477047002001E001C1121F6F
